{
	"Contract/SimpleStorage.sol": {
		"SimpleStorage": {
			"abi": [
				{
					"inputs": [
						{
							"internalType": "string",
							"name": "_name",
							"type": "string"
						},
						{
							"internalType": "uint256",
							"name": "_age",
							"type": "uint256"
						}
					],
					"name": "addPerson",
					"outputs": [],
					"stateMutability": "nonpayable",
					"type": "function"
				},
				{
					"inputs": [
						{
							"internalType": "string",
							"name": "_peopleName",
							"type": "string"
						},
						{
							"internalType": "uint256",
							"name": "_favNumber",
							"type": "uint256"
						}
					],
					"name": "addPersonal",
					"outputs": [],
					"stateMutability": "nonpayable",
					"type": "function"
				},
				{
					"inputs": [
						{
							"internalType": "uint256",
							"name": "",
							"type": "uint256"
						}
					],
					"name": "favNumberToName",
					"outputs": [
						{
							"internalType": "string",
							"name": "",
							"type": "string"
						}
					],
					"stateMutability": "view",
					"type": "function"
				},
				{
					"inputs": [],
					"name": "favoriteNumber",
					"outputs": [
						{
							"internalType": "uint256",
							"name": "",
							"type": "uint256"
						}
					],
					"stateMutability": "view",
					"type": "function"
				},
				{
					"inputs": [],
					"name": "getPerson",
					"outputs": [
						{
							"components": [
								{
									"internalType": "string",
									"name": "name",
									"type": "string"
								},
								{
									"internalType": "uint256",
									"name": "age",
									"type": "uint256"
								}
							],
							"internalType": "struct SimpleStorage.People[]",
							"name": "",
							"type": "tuple[]"
						}
					],
					"stateMutability": "view",
					"type": "function"
				},
				{
					"inputs": [],
					"name": "getPersonName",
					"outputs": [
						{
							"internalType": "string",
							"name": "",
							"type": "string"
						}
					],
					"stateMutability": "view",
					"type": "function"
				},
				{
					"inputs": [],
					"name": "getPersonal",
					"outputs": [
						{
							"components": [
								{
									"internalType": "string",
									"name": "peopleName",
									"type": "string"
								},
								{
									"internalType": "uint256",
									"name": "favNumber",
									"type": "uint256"
								}
							],
							"internalType": "struct SimpleStorage.PeopleFavNumber[]",
							"name": "",
							"type": "tuple[]"
						}
					],
					"stateMutability": "view",
					"type": "function"
				},
				{
					"inputs": [
						{
							"internalType": "string",
							"name": "",
							"type": "string"
						}
					],
					"name": "nameToAge",
					"outputs": [
						{
							"internalType": "uint256",
							"name": "",
							"type": "uint256"
						}
					],
					"stateMutability": "view",
					"type": "function"
				},
				{
					"inputs": [
						{
							"internalType": "uint256",
							"name": "",
							"type": "uint256"
						}
					],
					"name": "person",
					"outputs": [
						{
							"internalType": "string",
							"name": "name",
							"type": "string"
						},
						{
							"internalType": "uint256",
							"name": "age",
							"type": "uint256"
						}
					],
					"stateMutability": "view",
					"type": "function"
				},
				{
					"inputs": [
						{
							"internalType": "uint256",
							"name": "",
							"type": "uint256"
						}
					],
					"name": "personal",
					"outputs": [
						{
							"internalType": "string",
							"name": "peopleName",
							"type": "string"
						},
						{
							"internalType": "uint256",
							"name": "favNumber",
							"type": "uint256"
						}
					],
					"stateMutability": "view",
					"type": "function"
				},
				{
					"inputs": [],
					"name": "retrieve",
					"outputs": [
						{
							"internalType": "uint256",
							"name": "",
							"type": "uint256"
						}
					],
					"stateMutability": "view",
					"type": "function"
				},
				{
					"inputs": [
						{
							"internalType": "string",
							"name": "_personName",
							"type": "string"
						}
					],
					"name": "setPersonName",
					"outputs": [],
					"stateMutability": "nonpayable",
					"type": "function"
				},
				{
					"inputs": [
						{
							"internalType": "uint256",
							"name": "_favoriteNumber",
							"type": "uint256"
						}
					],
					"name": "store",
					"outputs": [],
					"stateMutability": "nonpayable",
					"type": "function"
				}
			],
			"devdoc": {
				"kind": "dev",
				"methods": {},
				"version": 1
			},
			"evm": {
				"assembly": "    /* \"Contract/SimpleStorage.sol\":61:2792  contract SimpleStorage{... */\n  mstore(0x40, 0x80)\n  callvalue\n  dup1\n  iszero\n  tag_1\n  jumpi\n  revert(0x00, 0x00)\ntag_1:\n  pop\n  dataSize(sub_0)\n  dup1\n  dataOffset(sub_0)\n  0x00\n  codecopy\n  0x00\n  return\nstop\n\nsub_0: assembly {\n        /* \"Contract/SimpleStorage.sol\":61:2792  contract SimpleStorage{... */\n      mstore(0x40, 0x80)\n      callvalue\n      dup1\n      iszero\n      tag_1\n      jumpi\n      revert(0x00, 0x00)\n    tag_1:\n      pop\n      jumpi(tag_2, lt(calldatasize, 0x04))\n      shr(0xe0, calldataload(0x00))\n      dup1\n      0x4e863271\n      gt\n      tag_16\n      jumpi\n      dup1\n      0x8ec4dc95\n      gt\n      tag_17\n      jumpi\n      dup1\n      0x8ec4dc95\n      eq\n      tag_12\n      jumpi\n      dup1\n      0x90c3ee4d\n      eq\n      tag_13\n      jumpi\n      dup1\n      0xb55003fa\n      eq\n      tag_14\n      jumpi\n      dup1\n      0xca052bf0\n      eq\n      tag_15\n      jumpi\n      jump(tag_2)\n    tag_17:\n      dup1\n      0x4e863271\n      eq\n      tag_9\n      jumpi\n      dup1\n      0x6057361d\n      eq\n      tag_10\n      jumpi\n      dup1\n      0x6f760f41\n      eq\n      tag_11\n      jumpi\n      jump(tag_2)\n    tag_16:\n      dup1\n      0x0756cd4e\n      eq\n      tag_3\n      jumpi\n      dup1\n      0x092a1820\n      eq\n      tag_4\n      jumpi\n      dup1\n      0x2d180460\n      eq\n      tag_5\n      jumpi\n      dup1\n      0x2e64cec1\n      eq\n      tag_6\n      jumpi\n      dup1\n      0x3f17dd63\n      eq\n      tag_7\n      jumpi\n      dup1\n      0x471f7cdf\n      eq\n      tag_8\n      jumpi\n    tag_2:\n      revert(0x00, 0x00)\n        /* \"Contract/SimpleStorage.sol\":2455:2679  function addPersonal(string memory _peopleName, uint256 _favNumber)public{... */\n    tag_3:\n      tag_18\n      0x04\n      dup1\n      calldatasize\n      sub\n      dup2\n      add\n      swap1\n      tag_19\n      swap2\n      swap1\n      tag_20\n      jump\t// in\n    tag_19:\n      tag_21\n      jump\t// in\n    tag_18:\n      stop\n        /* \"Contract/SimpleStorage.sol\":1906:1928  People[] public person */\n    tag_4:\n      tag_22\n      0x04\n      dup1\n      calldatasize\n      sub\n      dup2\n      add\n      swap1\n      tag_23\n      swap2\n      swap1\n      tag_24\n      jump\t// in\n    tag_23:\n      tag_25\n      jump\t// in\n    tag_22:\n      mload(0x40)\n      tag_26\n      swap3\n      swap2\n      swap1\n      tag_27\n      jump\t// in\n    tag_26:\n      mload(0x40)\n      dup1\n      swap2\n      sub\n      swap1\n      return\n        /* \"Contract/SimpleStorage.sol\":2357:2406  mapping(uint256 => string) public favNumberToName */\n    tag_5:\n      tag_28\n      0x04\n      dup1\n      calldatasize\n      sub\n      dup2\n      add\n      swap1\n      tag_29\n      swap2\n      swap1\n      tag_24\n      jump\t// in\n    tag_29:\n      tag_30\n      jump\t// in\n    tag_28:\n      mload(0x40)\n      tag_31\n      swap2\n      swap1\n      tag_32\n      jump\t// in\n    tag_31:\n      mload(0x40)\n      dup1\n      swap2\n      sub\n      swap1\n      return\n        /* \"Contract/SimpleStorage.sol\":1353:1442  function retrieve() public view returns (uint256){... */\n    tag_6:\n      tag_33\n      tag_34\n      jump\t// in\n    tag_33:\n      mload(0x40)\n      tag_35\n      swap2\n      swap1\n      tag_36\n      jump\t// in\n    tag_35:\n      mload(0x40)\n      dup1\n      swap2\n      sub\n      swap1\n      return\n        /* \"Contract/SimpleStorage.sol\":2687:2789  function getPersonal() public view returns(PeopleFavNumber[] memory){... */\n    tag_7:\n      tag_37\n      tag_38\n      jump\t// in\n    tag_37:\n      mload(0x40)\n      tag_39\n      swap2\n      swap1\n      tag_40\n      jump\t// in\n    tag_39:\n      mload(0x40)\n      dup1\n      swap2\n      sub\n      swap1\n      return\n        /* \"Contract/SimpleStorage.sol\":1207:1236  uint256 public favoriteNumber */\n    tag_8:\n      tag_41\n      tag_42\n      jump\t// in\n    tag_41:\n      mload(0x40)\n      tag_43\n      swap2\n      swap1\n      tag_36\n      jump\t// in\n    tag_43:\n      mload(0x40)\n      dup1\n      swap2\n      sub\n      swap1\n      return\n        /* \"Contract/SimpleStorage.sol\":1546:1645  function setPersonName(string memory _personName) public{... */\n    tag_9:\n      tag_44\n      0x04\n      dup1\n      calldatasize\n      sub\n      dup2\n      add\n      swap1\n      tag_45\n      swap2\n      swap1\n      tag_46\n      jump\t// in\n    tag_45:\n      tag_47\n      jump\t// in\n    tag_44:\n      stop\n        /* \"Contract/SimpleStorage.sol\":1243:1341  function store(uint256 _favoriteNumber) public {... */\n    tag_10:\n      tag_48\n      0x04\n      dup1\n      calldatasize\n      sub\n      dup2\n      add\n      swap1\n      tag_49\n      swap2\n      swap1\n      tag_24\n      jump\t// in\n    tag_49:\n      tag_50\n      jump\t// in\n    tag_48:\n      stop\n        /* \"Contract/SimpleStorage.sol\":1969:2128  function addPerson(string memory _name, uint256 _age) public {... */\n    tag_11:\n      tag_51\n      0x04\n      dup1\n      calldatasize\n      sub\n      dup2\n      add\n      swap1\n      tag_52\n      swap2\n      swap1\n      tag_20\n      jump\t// in\n    tag_52:\n      tag_53\n      jump\t// in\n    tag_51:\n      stop\n        /* \"Contract/SimpleStorage.sol\":2164:2253  function getPerson() public view returns(People[] memory){... */\n    tag_12:\n      tag_54\n      tag_55\n      jump\t// in\n    tag_54:\n      mload(0x40)\n      tag_56\n      swap2\n      swap1\n      tag_57\n      jump\t// in\n    tag_56:\n      mload(0x40)\n      dup1\n      swap2\n      sub\n      swap1\n      return\n        /* \"Contract/SimpleStorage.sol\":1450:1493  mapping(string => uint256) public nameToAge */\n    tag_13:\n      tag_58\n      0x04\n      dup1\n      calldatasize\n      sub\n      dup2\n      add\n      swap1\n      tag_59\n      swap2\n      swap1\n      tag_46\n      jump\t// in\n    tag_59:\n      tag_60\n      jump\t// in\n    tag_58:\n      mload(0x40)\n      tag_61\n      swap2\n      swap1\n      tag_36\n      jump\t// in\n    tag_61:\n      mload(0x40)\n      dup1\n      swap2\n      sub\n      swap1\n      return\n        /* \"Contract/SimpleStorage.sol\":1671:1767  function getPersonName() public view returns (string memory){... */\n    tag_14:\n      tag_62\n      tag_63\n      jump\t// in\n    tag_62:\n      mload(0x40)\n      tag_64\n      swap2\n      swap1\n      tag_32\n      jump\t// in\n    tag_64:\n      mload(0x40)\n      dup1\n      swap2\n      sub\n      swap1\n      return\n        /* \"Contract/SimpleStorage.sol\":2413:2446  PeopleFavNumber[] public personal */\n    tag_15:\n      tag_65\n      0x04\n      dup1\n      calldatasize\n      sub\n      dup2\n      add\n      swap1\n      tag_66\n      swap2\n      swap1\n      tag_24\n      jump\t// in\n    tag_66:\n      tag_67\n      jump\t// in\n    tag_65:\n      mload(0x40)\n      tag_68\n      swap3\n      swap2\n      swap1\n      tag_27\n      jump\t// in\n    tag_68:\n      mload(0x40)\n      dup1\n      swap2\n      sub\n      swap1\n      return\n        /* \"Contract/SimpleStorage.sol\":2455:2679  function addPersonal(string memory _peopleName, uint256 _favNumber)public{... */\n    tag_21:\n        /* \"Contract/SimpleStorage.sol\":2539:2547  personal */\n      0x05\n        /* \"Contract/SimpleStorage.sol\":2553:2618  PeopleFavNumber({peopleName: _peopleName, favNumber: _favNumber}) */\n      mload(0x40)\n      dup1\n      0x40\n      add\n      0x40\n      mstore\n      dup1\n        /* \"Contract/SimpleStorage.sol\":2582:2593  _peopleName */\n      dup5\n        /* \"Contract/SimpleStorage.sol\":2553:2618  PeopleFavNumber({peopleName: _peopleName, favNumber: _favNumber}) */\n      dup2\n      mstore\n      0x20\n      add\n        /* \"Contract/SimpleStorage.sol\":2606:2616  _favNumber */\n      dup4\n        /* \"Contract/SimpleStorage.sol\":2553:2618  PeopleFavNumber({peopleName: _peopleName, favNumber: _favNumber}) */\n      dup2\n      mstore\n      pop\n        /* \"Contract/SimpleStorage.sol\":2539:2619  personal.push(PeopleFavNumber({peopleName: _peopleName, favNumber: _favNumber})) */\n      swap1\n      dup1\n      0x01\n      dup2\n      sload\n      add\n      dup1\n      dup3\n      sstore\n      dup1\n      swap2\n      pop\n      pop\n      0x01\n      swap1\n      sub\n      swap1\n      0x00\n      mstore\n      keccak256(0x00, 0x20)\n      swap1\n      0x02\n      mul\n      add\n      0x00\n      swap1\n      swap2\n      swap1\n      swap2\n      swap1\n      swap2\n      pop\n      0x00\n      dup3\n      add\n      mload\n      dup2\n      0x00\n      add\n      swap1\n      dup2\n      tag_71\n      swap2\n      swap1\n      tag_72\n      jump\t// in\n    tag_71:\n      pop\n      0x20\n      dup3\n      add\n      mload\n      dup2\n      0x01\n      add\n      sstore\n      pop\n      pop\n        /* \"Contract/SimpleStorage.sol\":2660:2671  _peopleName */\n      dup2\n        /* \"Contract/SimpleStorage.sol\":2630:2645  favNumberToName */\n      0x04\n        /* \"Contract/SimpleStorage.sol\":2630:2657  favNumberToName[_favNumber] */\n      0x00\n        /* \"Contract/SimpleStorage.sol\":2646:2656  _favNumber */\n      dup4\n        /* \"Contract/SimpleStorage.sol\":2630:2657  favNumberToName[_favNumber] */\n      dup2\n      mstore\n      0x20\n      add\n      swap1\n      dup2\n      mstore\n      0x20\n      add\n      0x00\n      keccak256\n        /* \"Contract/SimpleStorage.sol\":2630:2671  favNumberToName[_favNumber] = _peopleName */\n      swap1\n      dup2\n      tag_73\n      swap2\n      swap1\n      tag_72\n      jump\t// in\n    tag_73:\n      pop\n        /* \"Contract/SimpleStorage.sol\":2455:2679  function addPersonal(string memory _peopleName, uint256 _favNumber)public{... */\n      pop\n      pop\n      jump\t// out\n        /* \"Contract/SimpleStorage.sol\":1906:1928  People[] public person */\n    tag_25:\n      0x03\n      dup2\n      dup2\n      sload\n      dup2\n      lt\n      tag_74\n      jumpi\n      0x00\n      dup1\n      revert\n    tag_74:\n      swap1\n      0x00\n      mstore\n      keccak256(0x00, 0x20)\n      swap1\n      0x02\n      mul\n      add\n      0x00\n      swap2\n      pop\n      swap1\n      pop\n      dup1\n      0x00\n      add\n      dup1\n      sload\n      tag_76\n      swap1\n      tag_77\n      jump\t// in\n    tag_76:\n      dup1\n      0x1f\n      add\n      0x20\n      dup1\n      swap2\n      div\n      mul\n      0x20\n      add\n      mload(0x40)\n      swap1\n      dup2\n      add\n      0x40\n      mstore\n      dup1\n      swap3\n      swap2\n      swap1\n      dup2\n      dup2\n      mstore\n      0x20\n      add\n      dup3\n      dup1\n      sload\n      tag_78\n      swap1\n      tag_77\n      jump\t// in\n    tag_78:\n      dup1\n      iszero\n      tag_79\n      jumpi\n      dup1\n      0x1f\n      lt\n      tag_80\n      jumpi\n      0x0100\n      dup1\n      dup4\n      sload\n      div\n      mul\n      dup4\n      mstore\n      swap2\n      0x20\n      add\n      swap2\n      jump(tag_79)\n    tag_80:\n      dup3\n      add\n      swap2\n      swap1\n      0x00\n      mstore\n      keccak256(0x00, 0x20)\n      swap1\n    tag_81:\n      dup2\n      sload\n      dup2\n      mstore\n      swap1\n      0x01\n      add\n      swap1\n      0x20\n      add\n      dup1\n      dup4\n      gt\n      tag_81\n      jumpi\n      dup3\n      swap1\n      sub\n      0x1f\n      and\n      dup3\n      add\n      swap2\n    tag_79:\n      pop\n      pop\n      pop\n      pop\n      pop\n      swap1\n      dup1\n      0x01\n      add\n      sload\n      swap1\n      pop\n      dup3\n      jump\t// out\n        /* \"Contract/SimpleStorage.sol\":2357:2406  mapping(uint256 => string) public favNumberToName */\n    tag_30:\n      mstore(0x20, 0x04)\n      dup1\n      0x00\n      mstore\n      keccak256(0x00, 0x40)\n      0x00\n      swap2\n      pop\n      swap1\n      pop\n      dup1\n      sload\n      tag_82\n      swap1\n      tag_77\n      jump\t// in\n    tag_82:\n      dup1\n      0x1f\n      add\n      0x20\n      dup1\n      swap2\n      div\n      mul\n      0x20\n      add\n      mload(0x40)\n      swap1\n      dup2\n      add\n      0x40\n      mstore\n      dup1\n      swap3\n      swap2\n      swap1\n      dup2\n      dup2\n      mstore\n      0x20\n      add\n      dup3\n      dup1\n      sload\n      tag_83\n      swap1\n      tag_77\n      jump\t// in\n    tag_83:\n      dup1\n      iszero\n      tag_84\n      jumpi\n      dup1\n      0x1f\n      lt\n      tag_85\n      jumpi\n      0x0100\n      dup1\n      dup4\n      sload\n      div\n      mul\n      dup4\n      mstore\n      swap2\n      0x20\n      add\n      swap2\n      jump(tag_84)\n    tag_85:\n      dup3\n      add\n      swap2\n      swap1\n      0x00\n      mstore\n      keccak256(0x00, 0x20)\n      swap1\n    tag_86:\n      dup2\n      sload\n      dup2\n      mstore\n      swap1\n      0x01\n      add\n      swap1\n      0x20\n      add\n      dup1\n      dup4\n      gt\n      tag_86\n      jumpi\n      dup3\n      swap1\n      sub\n      0x1f\n      and\n      dup3\n      add\n      swap2\n    tag_84:\n      pop\n      pop\n      pop\n      pop\n      pop\n      dup2\n      jump\t// out\n        /* \"Contract/SimpleStorage.sol\":1353:1442  function retrieve() public view returns (uint256){... */\n    tag_34:\n        /* \"Contract/SimpleStorage.sol\":1394:1401  uint256 */\n      0x00\n        /* \"Contract/SimpleStorage.sol\":1420:1434  favoriteNumber */\n      sload(0x00)\n        /* \"Contract/SimpleStorage.sol\":1413:1434  return favoriteNumber */\n      swap1\n      pop\n        /* \"Contract/SimpleStorage.sol\":1353:1442  function retrieve() public view returns (uint256){... */\n      swap1\n      jump\t// out\n        /* \"Contract/SimpleStorage.sol\":2687:2789  function getPersonal() public view returns(PeopleFavNumber[] memory){... */\n    tag_38:\n        /* \"Contract/SimpleStorage.sol\":2730:2754  PeopleFavNumber[] memory */\n      0x60\n        /* \"Contract/SimpleStorage.sol\":2773:2781  personal */\n      0x05\n        /* \"Contract/SimpleStorage.sol\":2766:2781  return personal */\n      dup1\n      sload\n      dup1\n      0x20\n      mul\n      0x20\n      add\n      mload(0x40)\n      swap1\n      dup2\n      add\n      0x40\n      mstore\n      dup1\n      swap3\n      swap2\n      swap1\n      dup2\n      dup2\n      mstore\n      0x20\n      add\n      0x00\n      swap1\n    tag_89:\n      dup3\n      dup3\n      lt\n      iszero\n      tag_90\n      jumpi\n      dup4\n      dup3\n      swap1\n      0x00\n      mstore\n      keccak256(0x00, 0x20)\n      swap1\n      0x02\n      mul\n      add\n      mload(0x40)\n      dup1\n      0x40\n      add\n      0x40\n      mstore\n      swap1\n      dup2\n      0x00\n      dup3\n      add\n      dup1\n      sload\n      tag_92\n      swap1\n      tag_77\n      jump\t// in\n    tag_92:\n      dup1\n      0x1f\n      add\n      0x20\n      dup1\n      swap2\n      div\n      mul\n      0x20\n      add\n      mload(0x40)\n      swap1\n      dup2\n      add\n      0x40\n      mstore\n      dup1\n      swap3\n      swap2\n      swap1\n      dup2\n      dup2\n      mstore\n      0x20\n      add\n      dup3\n      dup1\n      sload\n      tag_93\n      swap1\n      tag_77\n      jump\t// in\n    tag_93:\n      dup1\n      iszero\n      tag_94\n      jumpi\n      dup1\n      0x1f\n      lt\n      tag_95\n      jumpi\n      0x0100\n      dup1\n      dup4\n      sload\n      div\n      mul\n      dup4\n      mstore\n      swap2\n      0x20\n      add\n      swap2\n      jump(tag_94)\n    tag_95:\n      dup3\n      add\n      swap2\n      swap1\n      0x00\n      mstore\n      keccak256(0x00, 0x20)\n      swap1\n    tag_96:\n      dup2\n      sload\n      dup2\n      mstore\n      swap1\n      0x01\n      add\n      swap1\n      0x20\n      add\n      dup1\n      dup4\n      gt\n      tag_96\n      jumpi\n      dup3\n      swap1\n      sub\n      0x1f\n      and\n      dup3\n      add\n      swap2\n    tag_94:\n      pop\n      pop\n      pop\n      pop\n      pop\n      dup2\n      mstore\n      0x20\n      add\n      0x01\n      dup3\n      add\n      sload\n      dup2\n      mstore\n      pop\n      pop\n      dup2\n      mstore\n      0x20\n      add\n      swap1\n      0x01\n      add\n      swap1\n      jump(tag_89)\n    tag_90:\n      pop\n      pop\n      pop\n      pop\n      swap1\n      pop\n        /* \"Contract/SimpleStorage.sol\":2687:2789  function getPersonal() public view returns(PeopleFavNumber[] memory){... */\n      swap1\n      jump\t// out\n        /* \"Contract/SimpleStorage.sol\":1207:1236  uint256 public favoriteNumber */\n    tag_42:\n      sload(0x00)\n      dup2\n      jump\t// out\n        /* \"Contract/SimpleStorage.sol\":1546:1645  function setPersonName(string memory _personName) public{... */\n    tag_47:\n        /* \"Contract/SimpleStorage.sol\":1626:1637  _personName */\n      dup1\n        /* \"Contract/SimpleStorage.sol\":1613:1623  personName */\n      0x02\n        /* \"Contract/SimpleStorage.sol\":1613:1637  personName = _personName */\n      swap1\n      dup2\n      tag_98\n      swap2\n      swap1\n      tag_72\n      jump\t// in\n    tag_98:\n      pop\n        /* \"Contract/SimpleStorage.sol\":1546:1645  function setPersonName(string memory _personName) public{... */\n      pop\n      jump\t// out\n        /* \"Contract/SimpleStorage.sol\":1243:1341  function store(uint256 _favoriteNumber) public {... */\n    tag_50:\n        /* \"Contract/SimpleStorage.sol\":1318:1333  _favoriteNumber */\n      dup1\n        /* \"Contract/SimpleStorage.sol\":1301:1315  favoriteNumber */\n      0x00\n        /* \"Contract/SimpleStorage.sol\":1301:1333  favoriteNumber = _favoriteNumber */\n      dup2\n      swap1\n      sstore\n      pop\n        /* \"Contract/SimpleStorage.sol\":1243:1341  function store(uint256 _favoriteNumber) public {... */\n      pop\n      jump\t// out\n        /* \"Contract/SimpleStorage.sol\":1969:2128  function addPerson(string memory _name, uint256 _age) public {... */\n    tag_53:\n        /* \"Contract/SimpleStorage.sol\":2041:2047  person */\n      0x03\n        /* \"Contract/SimpleStorage.sol\":2053:2085  People({name: _name, age: _age}) */\n      mload(0x40)\n      dup1\n      0x40\n      add\n      0x40\n      mstore\n      dup1\n        /* \"Contract/SimpleStorage.sol\":2067:2072  _name */\n      dup5\n        /* \"Contract/SimpleStorage.sol\":2053:2085  People({name: _name, age: _age}) */\n      dup2\n      mstore\n      0x20\n      add\n        /* \"Contract/SimpleStorage.sol\":2079:2083  _age */\n      dup4\n        /* \"Contract/SimpleStorage.sol\":2053:2085  People({name: _name, age: _age}) */\n      dup2\n      mstore\n      pop\n        /* \"Contract/SimpleStorage.sol\":2041:2086  person.push(People({name: _name, age: _age})) */\n      swap1\n      dup1\n      0x01\n      dup2\n      sload\n      add\n      dup1\n      dup3\n      sstore\n      dup1\n      swap2\n      pop\n      pop\n      0x01\n      swap1\n      sub\n      swap1\n      0x00\n      mstore\n      keccak256(0x00, 0x20)\n      swap1\n      0x02\n      mul\n      add\n      0x00\n      swap1\n      swap2\n      swap1\n      swap2\n      swap1\n      swap2\n      pop\n      0x00\n      dup3\n      add\n      mload\n      dup2\n      0x00\n      add\n      swap1\n      dup2\n      tag_102\n      swap2\n      swap1\n      tag_72\n      jump\t// in\n    tag_102:\n      pop\n      0x20\n      dup3\n      add\n      mload\n      dup2\n      0x01\n      add\n      sstore\n      pop\n      pop\n        /* \"Contract/SimpleStorage.sol\":2116:2120  _age */\n      dup1\n        /* \"Contract/SimpleStorage.sol\":2097:2106  nameToAge */\n      0x01\n        /* \"Contract/SimpleStorage.sol\":2107:2112  _name */\n      dup4\n        /* \"Contract/SimpleStorage.sol\":2097:2113  nameToAge[_name] */\n      mload(0x40)\n      tag_103\n      swap2\n      swap1\n      tag_104\n      jump\t// in\n    tag_103:\n      swap1\n      dup2\n      mstore\n      0x20\n      add\n      mload(0x40)\n      dup1\n      swap2\n      sub\n      swap1\n      keccak256\n        /* \"Contract/SimpleStorage.sol\":2097:2120  nameToAge[_name] = _age */\n      dup2\n      swap1\n      sstore\n      pop\n        /* \"Contract/SimpleStorage.sol\":1969:2128  function addPerson(string memory _name, uint256 _age) public {... */\n      pop\n      pop\n      jump\t// out\n        /* \"Contract/SimpleStorage.sol\":2164:2253  function getPerson() public view returns(People[] memory){... */\n    tag_55:\n        /* \"Contract/SimpleStorage.sol\":2205:2220  People[] memory */\n      0x60\n        /* \"Contract/SimpleStorage.sol\":2239:2245  person */\n      0x03\n        /* \"Contract/SimpleStorage.sol\":2232:2245  return person */\n      dup1\n      sload\n      dup1\n      0x20\n      mul\n      0x20\n      add\n      mload(0x40)\n      swap1\n      dup2\n      add\n      0x40\n      mstore\n      dup1\n      swap3\n      swap2\n      swap1\n      dup2\n      dup2\n      mstore\n      0x20\n      add\n      0x00\n      swap1\n    tag_106:\n      dup3\n      dup3\n      lt\n      iszero\n      tag_107\n      jumpi\n      dup4\n      dup3\n      swap1\n      0x00\n      mstore\n      keccak256(0x00, 0x20)\n      swap1\n      0x02\n      mul\n      add\n      mload(0x40)\n      dup1\n      0x40\n      add\n      0x40\n      mstore\n      swap1\n      dup2\n      0x00\n      dup3\n      add\n      dup1\n      sload\n      tag_109\n      swap1\n      tag_77\n      jump\t// in\n    tag_109:\n      dup1\n      0x1f\n      add\n      0x20\n      dup1\n      swap2\n      div\n      mul\n      0x20\n      add\n      mload(0x40)\n      swap1\n      dup2\n      add\n      0x40\n      mstore\n      dup1\n      swap3\n      swap2\n      swap1\n      dup2\n      dup2\n      mstore\n      0x20\n      add\n      dup3\n      dup1\n      sload\n      tag_110\n      swap1\n      tag_77\n      jump\t// in\n    tag_110:\n      dup1\n      iszero\n      tag_111\n      jumpi\n      dup1\n      0x1f\n      lt\n      tag_112\n      jumpi\n      0x0100\n      dup1\n      dup4\n      sload\n      div\n      mul\n      dup4\n      mstore\n      swap2\n      0x20\n      add\n      swap2\n      jump(tag_111)\n    tag_112:\n      dup3\n      add\n      swap2\n      swap1\n      0x00\n      mstore\n      keccak256(0x00, 0x20)\n      swap1\n    tag_113:\n      dup2\n      sload\n      dup2\n      mstore\n      swap1\n      0x01\n      add\n      swap1\n      0x20\n      add\n      dup1\n      dup4\n      gt\n      tag_113\n      jumpi\n      dup3\n      swap1\n      sub\n      0x1f\n      and\n      dup3\n      add\n      swap2\n    tag_111:\n      pop\n      pop\n      pop\n      pop\n      pop\n      dup2\n      mstore\n      0x20\n      add\n      0x01\n      dup3\n      add\n      sload\n      dup2\n      mstore\n      pop\n      pop\n      dup2\n      mstore\n      0x20\n      add\n      swap1\n      0x01\n      add\n      swap1\n      jump(tag_106)\n    tag_107:\n      pop\n      pop\n      pop\n      pop\n      swap1\n      pop\n        /* \"Contract/SimpleStorage.sol\":2164:2253  function getPerson() public view returns(People[] memory){... */\n      swap1\n      jump\t// out\n        /* \"Contract/SimpleStorage.sol\":1450:1493  mapping(string => uint256) public nameToAge */\n    tag_60:\n      0x01\n      dup2\n      dup1\n      mload\n      0x20\n      dup2\n      add\n      dup3\n      add\n      dup1\n      mload\n      dup5\n      dup3\n      mstore\n      0x20\n      dup4\n      add\n      0x20\n      dup6\n      add\n      keccak256\n      dup2\n      dup4\n      mstore\n      dup1\n      swap6\n      pop\n      pop\n      pop\n      pop\n      pop\n      pop\n      0x00\n      swap2\n      pop\n      swap1\n      pop\n      sload\n      dup2\n      jump\t// out\n        /* \"Contract/SimpleStorage.sol\":1671:1767  function getPersonName() public view returns (string memory){... */\n    tag_63:\n        /* \"Contract/SimpleStorage.sol\":1717:1730  string memory */\n      0x60\n        /* \"Contract/SimpleStorage.sol\":1749:1759  personName */\n      0x02\n        /* \"Contract/SimpleStorage.sol\":1742:1759  return personName */\n      dup1\n      sload\n      tag_115\n      swap1\n      tag_77\n      jump\t// in\n    tag_115:\n      dup1\n      0x1f\n      add\n      0x20\n      dup1\n      swap2\n      div\n      mul\n      0x20\n      add\n      mload(0x40)\n      swap1\n      dup2\n      add\n      0x40\n      mstore\n      dup1\n      swap3\n      swap2\n      swap1\n      dup2\n      dup2\n      mstore\n      0x20\n      add\n      dup3\n      dup1\n      sload\n      tag_116\n      swap1\n      tag_77\n      jump\t// in\n    tag_116:\n      dup1\n      iszero\n      tag_117\n      jumpi\n      dup1\n      0x1f\n      lt\n      tag_118\n      jumpi\n      0x0100\n      dup1\n      dup4\n      sload\n      div\n      mul\n      dup4\n      mstore\n      swap2\n      0x20\n      add\n      swap2\n      jump(tag_117)\n    tag_118:\n      dup3\n      add\n      swap2\n      swap1\n      0x00\n      mstore\n      keccak256(0x00, 0x20)\n      swap1\n    tag_119:\n      dup2\n      sload\n      dup2\n      mstore\n      swap1\n      0x01\n      add\n      swap1\n      0x20\n      add\n      dup1\n      dup4\n      gt\n      tag_119\n      jumpi\n      dup3\n      swap1\n      sub\n      0x1f\n      and\n      dup3\n      add\n      swap2\n    tag_117:\n      pop\n      pop\n      pop\n      pop\n      pop\n      swap1\n      pop\n        /* \"Contract/SimpleStorage.sol\":1671:1767  function getPersonName() public view returns (string memory){... */\n      swap1\n      jump\t// out\n        /* \"Contract/SimpleStorage.sol\":2413:2446  PeopleFavNumber[] public personal */\n    tag_67:\n      0x05\n      dup2\n      dup2\n      sload\n      dup2\n      lt\n      tag_120\n      jumpi\n      0x00\n      dup1\n      revert\n    tag_120:\n      swap1\n      0x00\n      mstore\n      keccak256(0x00, 0x20)\n      swap1\n      0x02\n      mul\n      add\n      0x00\n      swap2\n      pop\n      swap1\n      pop\n      dup1\n      0x00\n      add\n      dup1\n      sload\n      tag_122\n      swap1\n      tag_77\n      jump\t// in\n    tag_122:\n      dup1\n      0x1f\n      add\n      0x20\n      dup1\n      swap2\n      div\n      mul\n      0x20\n      add\n      mload(0x40)\n      swap1\n      dup2\n      add\n      0x40\n      mstore\n      dup1\n      swap3\n      swap2\n      swap1\n      dup2\n      dup2\n      mstore\n      0x20\n      add\n      dup3\n      dup1\n      sload\n      tag_123\n      swap1\n      tag_77\n      jump\t// in\n    tag_123:\n      dup1\n      iszero\n      tag_124\n      jumpi\n      dup1\n      0x1f\n      lt\n      tag_125\n      jumpi\n      0x0100\n      dup1\n      dup4\n      sload\n      div\n      mul\n      dup4\n      mstore\n      swap2\n      0x20\n      add\n      swap2\n      jump(tag_124)\n    tag_125:\n      dup3\n      add\n      swap2\n      swap1\n      0x00\n      mstore\n      keccak256(0x00, 0x20)\n      swap1\n    tag_126:\n      dup2\n      sload\n      dup2\n      mstore\n      swap1\n      0x01\n      add\n      swap1\n      0x20\n      add\n      dup1\n      dup4\n      gt\n      tag_126\n      jumpi\n      dup3\n      swap1\n      sub\n      0x1f\n      and\n      dup3\n      add\n      swap2\n    tag_124:\n      pop\n      pop\n      pop\n      pop\n      pop\n      swap1\n      dup1\n      0x01\n      add\n      sload\n      swap1\n      pop\n      dup3\n      jump\t// out\n        /* \"#utility.yul\":7:82   */\n    tag_127:\n        /* \"#utility.yul\":40:46   */\n      0x00\n        /* \"#utility.yul\":73:75   */\n      0x40\n        /* \"#utility.yul\":67:76   */\n      mload\n        /* \"#utility.yul\":57:76   */\n      swap1\n      pop\n        /* \"#utility.yul\":7:82   */\n      swap1\n      jump\t// out\n        /* \"#utility.yul\":88:205   */\n    tag_128:\n        /* \"#utility.yul\":197:198   */\n      0x00\n        /* \"#utility.yul\":194:195   */\n      0x00\n        /* \"#utility.yul\":187:199   */\n      revert\n        /* \"#utility.yul\":211:328   */\n    tag_129:\n        /* \"#utility.yul\":320:321   */\n      0x00\n        /* \"#utility.yul\":317:318   */\n      0x00\n        /* \"#utility.yul\":310:322   */\n      revert\n        /* \"#utility.yul\":334:451   */\n    tag_130:\n        /* \"#utility.yul\":443:444   */\n      0x00\n        /* \"#utility.yul\":440:441   */\n      0x00\n        /* \"#utility.yul\":433:445   */\n      revert\n        /* \"#utility.yul\":457:574   */\n    tag_131:\n        /* \"#utility.yul\":566:567   */\n      0x00\n        /* \"#utility.yul\":563:564   */\n      0x00\n        /* \"#utility.yul\":556:568   */\n      revert\n        /* \"#utility.yul\":580:682   */\n    tag_132:\n        /* \"#utility.yul\":621:627   */\n      0x00\n        /* \"#utility.yul\":672:674   */\n      0x1f\n        /* \"#utility.yul\":668:675   */\n      not\n        /* \"#utility.yul\":663:665   */\n      0x1f\n        /* \"#utility.yul\":656:661   */\n      dup4\n        /* \"#utility.yul\":652:666   */\n      add\n        /* \"#utility.yul\":648:676   */\n      and\n        /* \"#utility.yul\":638:676   */\n      swap1\n      pop\n        /* \"#utility.yul\":580:682   */\n      swap2\n      swap1\n      pop\n      jump\t// out\n        /* \"#utility.yul\":688:868   */\n    tag_133:\n        /* \"#utility.yul\":736:813   */\n      0x4e487b7100000000000000000000000000000000000000000000000000000000\n        /* \"#utility.yul\":733:734   */\n      0x00\n        /* \"#utility.yul\":726:814   */\n      mstore\n        /* \"#utility.yul\":833:837   */\n      0x41\n        /* \"#utility.yul\":830:831   */\n      0x04\n        /* \"#utility.yul\":823:838   */\n      mstore\n        /* \"#utility.yul\":857:861   */\n      0x24\n        /* \"#utility.yul\":854:855   */\n      0x00\n        /* \"#utility.yul\":847:862   */\n      revert\n        /* \"#utility.yul\":874:1155   */\n    tag_134:\n        /* \"#utility.yul\":957:984   */\n      tag_192\n        /* \"#utility.yul\":979:983   */\n      dup3\n        /* \"#utility.yul\":957:984   */\n      tag_132\n      jump\t// in\n    tag_192:\n        /* \"#utility.yul\":949:955   */\n      dup2\n        /* \"#utility.yul\":945:985   */\n      add\n        /* \"#utility.yul\":1087:1093   */\n      dup2\n        /* \"#utility.yul\":1075:1085   */\n      dup2\n        /* \"#utility.yul\":1072:1094   */\n      lt\n        /* \"#utility.yul\":1051:1069   */\n      0xffffffffffffffff\n        /* \"#utility.yul\":1039:1049   */\n      dup3\n        /* \"#utility.yul\":1036:1070   */\n      gt\n        /* \"#utility.yul\":1033:1095   */\n      or\n        /* \"#utility.yul\":1030:1118   */\n      iszero\n      tag_193\n      jumpi\n        /* \"#utility.yul\":1098:1116   */\n      tag_194\n      tag_133\n      jump\t// in\n    tag_194:\n        /* \"#utility.yul\":1030:1118   */\n    tag_193:\n        /* \"#utility.yul\":1138:1148   */\n      dup1\n        /* \"#utility.yul\":1134:1136   */\n      0x40\n        /* \"#utility.yul\":1127:1149   */\n      mstore\n        /* \"#utility.yul\":917:1155   */\n      pop\n        /* \"#utility.yul\":874:1155   */\n      pop\n      pop\n      jump\t// out\n        /* \"#utility.yul\":1161:1290   */\n    tag_135:\n        /* \"#utility.yul\":1195:1201   */\n      0x00\n        /* \"#utility.yul\":1222:1242   */\n      tag_196\n      tag_127\n      jump\t// in\n    tag_196:\n        /* \"#utility.yul\":1212:1242   */\n      swap1\n      pop\n        /* \"#utility.yul\":1251:1284   */\n      tag_197\n        /* \"#utility.yul\":1279:1283   */\n      dup3\n        /* \"#utility.yul\":1271:1277   */\n      dup3\n        /* \"#utility.yul\":1251:1284   */\n      tag_134\n      jump\t// in\n    tag_197:\n        /* \"#utility.yul\":1161:1290   */\n      swap2\n      swap1\n      pop\n      jump\t// out\n        /* \"#utility.yul\":1296:1604   */\n    tag_136:\n        /* \"#utility.yul\":1358:1362   */\n      0x00\n        /* \"#utility.yul\":1448:1466   */\n      0xffffffffffffffff\n        /* \"#utility.yul\":1440:1446   */\n      dup3\n        /* \"#utility.yul\":1437:1467   */\n      gt\n        /* \"#utility.yul\":1434:1490   */\n      iszero\n      tag_199\n      jumpi\n        /* \"#utility.yul\":1470:1488   */\n      tag_200\n      tag_133\n      jump\t// in\n    tag_200:\n        /* \"#utility.yul\":1434:1490   */\n    tag_199:\n        /* \"#utility.yul\":1508:1537   */\n      tag_201\n        /* \"#utility.yul\":1530:1536   */\n      dup3\n        /* \"#utility.yul\":1508:1537   */\n      tag_132\n      jump\t// in\n    tag_201:\n        /* \"#utility.yul\":1500:1537   */\n      swap1\n      pop\n        /* \"#utility.yul\":1592:1596   */\n      0x20\n        /* \"#utility.yul\":1586:1590   */\n      dup2\n        /* \"#utility.yul\":1582:1597   */\n      add\n        /* \"#utility.yul\":1574:1597   */\n      swap1\n      pop\n        /* \"#utility.yul\":1296:1604   */\n      swap2\n      swap1\n      pop\n      jump\t// out\n        /* \"#utility.yul\":1610:1758   */\n    tag_137:\n        /* \"#utility.yul\":1708:1714   */\n      dup3\n        /* \"#utility.yul\":1703:1706   */\n      dup2\n        /* \"#utility.yul\":1698:1701   */\n      dup4\n        /* \"#utility.yul\":1685:1715   */\n      calldatacopy\n        /* \"#utility.yul\":1749:1750   */\n      0x00\n        /* \"#utility.yul\":1740:1746   */\n      dup4\n        /* \"#utility.yul\":1735:1738   */\n      dup4\n        /* \"#utility.yul\":1731:1747   */\n      add\n        /* \"#utility.yul\":1724:1751   */\n      mstore\n        /* \"#utility.yul\":1610:1758   */\n      pop\n      pop\n      pop\n      jump\t// out\n        /* \"#utility.yul\":1764:2189   */\n    tag_138:\n        /* \"#utility.yul\":1842:1847   */\n      0x00\n        /* \"#utility.yul\":1867:1933   */\n      tag_204\n        /* \"#utility.yul\":1883:1932   */\n      tag_205\n        /* \"#utility.yul\":1925:1931   */\n      dup5\n        /* \"#utility.yul\":1883:1932   */\n      tag_136\n      jump\t// in\n    tag_205:\n        /* \"#utility.yul\":1867:1933   */\n      tag_135\n      jump\t// in\n    tag_204:\n        /* \"#utility.yul\":1858:1933   */\n      swap1\n      pop\n        /* \"#utility.yul\":1956:1962   */\n      dup3\n        /* \"#utility.yul\":1949:1954   */\n      dup2\n        /* \"#utility.yul\":1942:1963   */\n      mstore\n        /* \"#utility.yul\":1994:1998   */\n      0x20\n        /* \"#utility.yul\":1987:1992   */\n      dup2\n        /* \"#utility.yul\":1983:1999   */\n      add\n        /* \"#utility.yul\":2032:2035   */\n      dup5\n        /* \"#utility.yul\":2023:2029   */\n      dup5\n        /* \"#utility.yul\":2018:2021   */\n      dup5\n        /* \"#utility.yul\":2014:2030   */\n      add\n        /* \"#utility.yul\":2011:2036   */\n      gt\n        /* \"#utility.yul\":2008:2120   */\n      iszero\n      tag_206\n      jumpi\n        /* \"#utility.yul\":2039:2118   */\n      tag_207\n      tag_131\n      jump\t// in\n    tag_207:\n        /* \"#utility.yul\":2008:2120   */\n    tag_206:\n        /* \"#utility.yul\":2129:2183   */\n      tag_208\n        /* \"#utility.yul\":2176:2182   */\n      dup5\n        /* \"#utility.yul\":2171:2174   */\n      dup3\n        /* \"#utility.yul\":2166:2169   */\n      dup6\n        /* \"#utility.yul\":2129:2183   */\n      tag_137\n      jump\t// in\n    tag_208:\n        /* \"#utility.yul\":1848:2189   */\n      pop\n        /* \"#utility.yul\":1764:2189   */\n      swap4\n      swap3\n      pop\n      pop\n      pop\n      jump\t// out\n        /* \"#utility.yul\":2209:2549   */\n    tag_139:\n        /* \"#utility.yul\":2265:2270   */\n      0x00\n        /* \"#utility.yul\":2314:2317   */\n      dup3\n        /* \"#utility.yul\":2307:2311   */\n      0x1f\n        /* \"#utility.yul\":2299:2305   */\n      dup4\n        /* \"#utility.yul\":2295:2312   */\n      add\n        /* \"#utility.yul\":2291:2318   */\n      slt\n        /* \"#utility.yul\":2281:2403   */\n      tag_210\n      jumpi\n        /* \"#utility.yul\":2322:2401   */\n      tag_211\n      tag_130\n      jump\t// in\n    tag_211:\n        /* \"#utility.yul\":2281:2403   */\n    tag_210:\n        /* \"#utility.yul\":2439:2445   */\n      dup2\n        /* \"#utility.yul\":2426:2446   */\n      calldataload\n        /* \"#utility.yul\":2464:2543   */\n      tag_212\n        /* \"#utility.yul\":2539:2542   */\n      dup5\n        /* \"#utility.yul\":2531:2537   */\n      dup3\n        /* \"#utility.yul\":2524:2528   */\n      0x20\n        /* \"#utility.yul\":2516:2522   */\n      dup7\n        /* \"#utility.yul\":2512:2529   */\n      add\n        /* \"#utility.yul\":2464:2543   */\n      tag_138\n      jump\t// in\n    tag_212:\n        /* \"#utility.yul\":2455:2543   */\n      swap2\n      pop\n        /* \"#utility.yul\":2271:2549   */\n      pop\n        /* \"#utility.yul\":2209:2549   */\n      swap3\n      swap2\n      pop\n      pop\n      jump\t// out\n        /* \"#utility.yul\":2555:2632   */\n    tag_140:\n        /* \"#utility.yul\":2592:2599   */\n      0x00\n        /* \"#utility.yul\":2621:2626   */\n      dup2\n        /* \"#utility.yul\":2610:2626   */\n      swap1\n      pop\n        /* \"#utility.yul\":2555:2632   */\n      swap2\n      swap1\n      pop\n      jump\t// out\n        /* \"#utility.yul\":2638:2760   */\n    tag_141:\n        /* \"#utility.yul\":2711:2735   */\n      tag_215\n        /* \"#utility.yul\":2729:2734   */\n      dup2\n        /* \"#utility.yul\":2711:2735   */\n      tag_140\n      jump\t// in\n    tag_215:\n        /* \"#utility.yul\":2704:2709   */\n      dup2\n        /* \"#utility.yul\":2701:2736   */\n      eq\n        /* \"#utility.yul\":2691:2754   */\n      tag_216\n      jumpi\n        /* \"#utility.yul\":2750:2751   */\n      0x00\n        /* \"#utility.yul\":2747:2748   */\n      0x00\n        /* \"#utility.yul\":2740:2752   */\n      revert\n        /* \"#utility.yul\":2691:2754   */\n    tag_216:\n        /* \"#utility.yul\":2638:2760   */\n      pop\n      jump\t// out\n        /* \"#utility.yul\":2766:2905   */\n    tag_142:\n        /* \"#utility.yul\":2812:2817   */\n      0x00\n        /* \"#utility.yul\":2850:2856   */\n      dup2\n        /* \"#utility.yul\":2837:2857   */\n      calldataload\n        /* \"#utility.yul\":2828:2857   */\n      swap1\n      pop\n        /* \"#utility.yul\":2866:2899   */\n      tag_218\n        /* \"#utility.yul\":2893:2898   */\n      dup2\n        /* \"#utility.yul\":2866:2899   */\n      tag_141\n      jump\t// in\n    tag_218:\n        /* \"#utility.yul\":2766:2905   */\n      swap3\n      swap2\n      pop\n      pop\n      jump\t// out\n        /* \"#utility.yul\":2911:3565   */\n    tag_20:\n        /* \"#utility.yul\":2989:2995   */\n      0x00\n        /* \"#utility.yul\":2997:3003   */\n      0x00\n        /* \"#utility.yul\":3046:3048   */\n      0x40\n        /* \"#utility.yul\":3034:3043   */\n      dup4\n        /* \"#utility.yul\":3025:3032   */\n      dup6\n        /* \"#utility.yul\":3021:3044   */\n      sub\n        /* \"#utility.yul\":3017:3049   */\n      slt\n        /* \"#utility.yul\":3014:3133   */\n      iszero\n      tag_220\n      jumpi\n        /* \"#utility.yul\":3052:3131   */\n      tag_221\n      tag_128\n      jump\t// in\n    tag_221:\n        /* \"#utility.yul\":3014:3133   */\n    tag_220:\n        /* \"#utility.yul\":3200:3201   */\n      0x00\n        /* \"#utility.yul\":3189:3198   */\n      dup4\n        /* \"#utility.yul\":3185:3202   */\n      add\n        /* \"#utility.yul\":3172:3203   */\n      calldataload\n        /* \"#utility.yul\":3230:3248   */\n      0xffffffffffffffff\n        /* \"#utility.yul\":3222:3228   */\n      dup2\n        /* \"#utility.yul\":3219:3249   */\n      gt\n        /* \"#utility.yul\":3216:3333   */\n      iszero\n      tag_222\n      jumpi\n        /* \"#utility.yul\":3252:3331   */\n      tag_223\n      tag_129\n      jump\t// in\n    tag_223:\n        /* \"#utility.yul\":3216:3333   */\n    tag_222:\n        /* \"#utility.yul\":3357:3420   */\n      tag_224\n        /* \"#utility.yul\":3412:3419   */\n      dup6\n        /* \"#utility.yul\":3403:3409   */\n      dup3\n        /* \"#utility.yul\":3392:3401   */\n      dup7\n        /* \"#utility.yul\":3388:3410   */\n      add\n        /* \"#utility.yul\":3357:3420   */\n      tag_139\n      jump\t// in\n    tag_224:\n        /* \"#utility.yul\":3347:3420   */\n      swap3\n      pop\n        /* \"#utility.yul\":3143:3430   */\n      pop\n        /* \"#utility.yul\":3469:3471   */\n      0x20\n        /* \"#utility.yul\":3495:3548   */\n      tag_225\n        /* \"#utility.yul\":3540:3547   */\n      dup6\n        /* \"#utility.yul\":3531:3537   */\n      dup3\n        /* \"#utility.yul\":3520:3529   */\n      dup7\n        /* \"#utility.yul\":3516:3538   */\n      add\n        /* \"#utility.yul\":3495:3548   */\n      tag_142\n      jump\t// in\n    tag_225:\n        /* \"#utility.yul\":3485:3548   */\n      swap2\n      pop\n        /* \"#utility.yul\":3440:3558   */\n      pop\n        /* \"#utility.yul\":2911:3565   */\n      swap3\n      pop\n      swap3\n      swap1\n      pop\n      jump\t// out\n        /* \"#utility.yul\":3571:3900   */\n    tag_24:\n        /* \"#utility.yul\":3630:3636   */\n      0x00\n        /* \"#utility.yul\":3679:3681   */\n      0x20\n        /* \"#utility.yul\":3667:3676   */\n      dup3\n        /* \"#utility.yul\":3658:3665   */\n      dup5\n        /* \"#utility.yul\":3654:3677   */\n      sub\n        /* \"#utility.yul\":3650:3682   */\n      slt\n        /* \"#utility.yul\":3647:3766   */\n      iszero\n      tag_227\n      jumpi\n        /* \"#utility.yul\":3685:3764   */\n      tag_228\n      tag_128\n      jump\t// in\n    tag_228:\n        /* \"#utility.yul\":3647:3766   */\n    tag_227:\n        /* \"#utility.yul\":3805:3806   */\n      0x00\n        /* \"#utility.yul\":3830:3883   */\n      tag_229\n        /* \"#utility.yul\":3875:3882   */\n      dup5\n        /* \"#utility.yul\":3866:3872   */\n      dup3\n        /* \"#utility.yul\":3855:3864   */\n      dup6\n        /* \"#utility.yul\":3851:3873   */\n      add\n        /* \"#utility.yul\":3830:3883   */\n      tag_142\n      jump\t// in\n    tag_229:\n        /* \"#utility.yul\":3820:3883   */\n      swap2\n      pop\n        /* \"#utility.yul\":3776:3893   */\n      pop\n        /* \"#utility.yul\":3571:3900   */\n      swap3\n      swap2\n      pop\n      pop\n      jump\t// out\n        /* \"#utility.yul\":3906:4005   */\n    tag_143:\n        /* \"#utility.yul\":3958:3964   */\n      0x00\n        /* \"#utility.yul\":3992:3997   */\n      dup2\n        /* \"#utility.yul\":3986:3998   */\n      mload\n        /* \"#utility.yul\":3976:3998   */\n      swap1\n      pop\n        /* \"#utility.yul\":3906:4005   */\n      swap2\n      swap1\n      pop\n      jump\t// out\n        /* \"#utility.yul\":4011:4180   */\n    tag_144:\n        /* \"#utility.yul\":4095:4106   */\n      0x00\n        /* \"#utility.yul\":4129:4135   */\n      dup3\n        /* \"#utility.yul\":4124:4127   */\n      dup3\n        /* \"#utility.yul\":4117:4136   */\n      mstore\n        /* \"#utility.yul\":4169:4173   */\n      0x20\n        /* \"#utility.yul\":4164:4167   */\n      dup3\n        /* \"#utility.yul\":4160:4174   */\n      add\n        /* \"#utility.yul\":4145:4174   */\n      swap1\n      pop\n        /* \"#utility.yul\":4011:4180   */\n      swap3\n      swap2\n      pop\n      pop\n      jump\t// out\n        /* \"#utility.yul\":4186:4325   */\n    tag_145:\n        /* \"#utility.yul\":4275:4281   */\n      dup3\n        /* \"#utility.yul\":4270:4273   */\n      dup2\n        /* \"#utility.yul\":4265:4268   */\n      dup4\n        /* \"#utility.yul\":4259:4282   */\n      mcopy\n        /* \"#utility.yul\":4316:4317   */\n      0x00\n        /* \"#utility.yul\":4307:4313   */\n      dup4\n        /* \"#utility.yul\":4302:4305   */\n      dup4\n        /* \"#utility.yul\":4298:4314   */\n      add\n        /* \"#utility.yul\":4291:4318   */\n      mstore\n        /* \"#utility.yul\":4186:4325   */\n      pop\n      pop\n      pop\n      jump\t// out\n        /* \"#utility.yul\":4331:4708   */\n    tag_146:\n        /* \"#utility.yul\":4419:4422   */\n      0x00\n        /* \"#utility.yul\":4447:4486   */\n      tag_234\n        /* \"#utility.yul\":4480:4485   */\n      dup3\n        /* \"#utility.yul\":4447:4486   */\n      tag_143\n      jump\t// in\n    tag_234:\n        /* \"#utility.yul\":4502:4573   */\n      tag_235\n        /* \"#utility.yul\":4566:4572   */\n      dup2\n        /* \"#utility.yul\":4561:4564   */\n      dup6\n        /* \"#utility.yul\":4502:4573   */\n      tag_144\n      jump\t// in\n    tag_235:\n        /* \"#utility.yul\":4495:4573   */\n      swap4\n      pop\n        /* \"#utility.yul\":4582:4647   */\n      tag_236\n        /* \"#utility.yul\":4640:4646   */\n      dup2\n        /* \"#utility.yul\":4635:4638   */\n      dup6\n        /* \"#utility.yul\":4628:4632   */\n      0x20\n        /* \"#utility.yul\":4621:4626   */\n      dup7\n        /* \"#utility.yul\":4617:4633   */\n      add\n        /* \"#utility.yul\":4582:4647   */\n      tag_145\n      jump\t// in\n    tag_236:\n        /* \"#utility.yul\":4672:4701   */\n      tag_237\n        /* \"#utility.yul\":4694:4700   */\n      dup2\n        /* \"#utility.yul\":4672:4701   */\n      tag_132\n      jump\t// in\n    tag_237:\n        /* \"#utility.yul\":4667:4670   */\n      dup5\n        /* \"#utility.yul\":4663:4702   */\n      add\n        /* \"#utility.yul\":4656:4702   */\n      swap2\n      pop\n        /* \"#utility.yul\":4423:4708   */\n      pop\n        /* \"#utility.yul\":4331:4708   */\n      swap3\n      swap2\n      pop\n      pop\n      jump\t// out\n        /* \"#utility.yul\":4714:4832   */\n    tag_147:\n        /* \"#utility.yul\":4801:4825   */\n      tag_239\n        /* \"#utility.yul\":4819:4824   */\n      dup2\n        /* \"#utility.yul\":4801:4825   */\n      tag_140\n      jump\t// in\n    tag_239:\n        /* \"#utility.yul\":4796:4799   */\n      dup3\n        /* \"#utility.yul\":4789:4826   */\n      mstore\n        /* \"#utility.yul\":4714:4832   */\n      pop\n      pop\n      jump\t// out\n        /* \"#utility.yul\":4838:5261   */\n    tag_27:\n        /* \"#utility.yul\":4979:4983   */\n      0x00\n        /* \"#utility.yul\":5017:5019   */\n      0x40\n        /* \"#utility.yul\":5006:5015   */\n      dup3\n        /* \"#utility.yul\":5002:5020   */\n      add\n        /* \"#utility.yul\":4994:5020   */\n      swap1\n      pop\n        /* \"#utility.yul\":5066:5075   */\n      dup2\n        /* \"#utility.yul\":5060:5064   */\n      dup2\n        /* \"#utility.yul\":5056:5076   */\n      sub\n        /* \"#utility.yul\":5052:5053   */\n      0x00\n        /* \"#utility.yul\":5041:5050   */\n      dup4\n        /* \"#utility.yul\":5037:5054   */\n      add\n        /* \"#utility.yul\":5030:5077   */\n      mstore\n        /* \"#utility.yul\":5094:5172   */\n      tag_241\n        /* \"#utility.yul\":5167:5171   */\n      dup2\n        /* \"#utility.yul\":5158:5164   */\n      dup6\n        /* \"#utility.yul\":5094:5172   */\n      tag_146\n      jump\t// in\n    tag_241:\n        /* \"#utility.yul\":5086:5172   */\n      swap1\n      pop\n        /* \"#utility.yul\":5182:5254   */\n      tag_242\n        /* \"#utility.yul\":5250:5252   */\n      0x20\n        /* \"#utility.yul\":5239:5248   */\n      dup4\n        /* \"#utility.yul\":5235:5253   */\n      add\n        /* \"#utility.yul\":5226:5232   */\n      dup5\n        /* \"#utility.yul\":5182:5254   */\n      tag_147\n      jump\t// in\n    tag_242:\n        /* \"#utility.yul\":4838:5261   */\n      swap4\n      swap3\n      pop\n      pop\n      pop\n      jump\t// out\n        /* \"#utility.yul\":5267:5580   */\n    tag_32:\n        /* \"#utility.yul\":5380:5384   */\n      0x00\n        /* \"#utility.yul\":5418:5420   */\n      0x20\n        /* \"#utility.yul\":5407:5416   */\n      dup3\n        /* \"#utility.yul\":5403:5421   */\n      add\n        /* \"#utility.yul\":5395:5421   */\n      swap1\n      pop\n        /* \"#utility.yul\":5467:5476   */\n      dup2\n        /* \"#utility.yul\":5461:5465   */\n      dup2\n        /* \"#utility.yul\":5457:5477   */\n      sub\n        /* \"#utility.yul\":5453:5454   */\n      0x00\n        /* \"#utility.yul\":5442:5451   */\n      dup4\n        /* \"#utility.yul\":5438:5455   */\n      add\n        /* \"#utility.yul\":5431:5478   */\n      mstore\n        /* \"#utility.yul\":5495:5573   */\n      tag_244\n        /* \"#utility.yul\":5568:5572   */\n      dup2\n        /* \"#utility.yul\":5559:5565   */\n      dup5\n        /* \"#utility.yul\":5495:5573   */\n      tag_146\n      jump\t// in\n    tag_244:\n        /* \"#utility.yul\":5487:5573   */\n      swap1\n      pop\n        /* \"#utility.yul\":5267:5580   */\n      swap3\n      swap2\n      pop\n      pop\n      jump\t// out\n        /* \"#utility.yul\":5586:5808   */\n    tag_36:\n        /* \"#utility.yul\":5679:5683   */\n      0x00\n        /* \"#utility.yul\":5717:5719   */\n      0x20\n        /* \"#utility.yul\":5706:5715   */\n      dup3\n        /* \"#utility.yul\":5702:5720   */\n      add\n        /* \"#utility.yul\":5694:5720   */\n      swap1\n      pop\n        /* \"#utility.yul\":5730:5801   */\n      tag_246\n        /* \"#utility.yul\":5798:5799   */\n      0x00\n        /* \"#utility.yul\":5787:5796   */\n      dup4\n        /* \"#utility.yul\":5783:5800   */\n      add\n        /* \"#utility.yul\":5774:5780   */\n      dup5\n        /* \"#utility.yul\":5730:5801   */\n      tag_147\n      jump\t// in\n    tag_246:\n        /* \"#utility.yul\":5586:5808   */\n      swap3\n      swap2\n      pop\n      pop\n      jump\t// out\n        /* \"#utility.yul\":5814:5959   */\n    tag_148:\n        /* \"#utility.yul\":5912:5918   */\n      0x00\n        /* \"#utility.yul\":5946:5951   */\n      dup2\n        /* \"#utility.yul\":5940:5952   */\n      mload\n        /* \"#utility.yul\":5930:5952   */\n      swap1\n      pop\n        /* \"#utility.yul\":5814:5959   */\n      swap2\n      swap1\n      pop\n      jump\t// out\n        /* \"#utility.yul\":5965:6180   */\n    tag_149:\n        /* \"#utility.yul\":6095:6106   */\n      0x00\n        /* \"#utility.yul\":6129:6135   */\n      dup3\n        /* \"#utility.yul\":6124:6127   */\n      dup3\n        /* \"#utility.yul\":6117:6136   */\n      mstore\n        /* \"#utility.yul\":6169:6173   */\n      0x20\n        /* \"#utility.yul\":6164:6167   */\n      dup3\n        /* \"#utility.yul\":6160:6174   */\n      add\n        /* \"#utility.yul\":6145:6174   */\n      swap1\n      pop\n        /* \"#utility.yul\":5965:6180   */\n      swap3\n      swap2\n      pop\n      pop\n      jump\t// out\n        /* \"#utility.yul\":6186:6349   */\n    tag_150:\n        /* \"#utility.yul\":6284:6288   */\n      0x00\n        /* \"#utility.yul\":6307:6310   */\n      dup2\n        /* \"#utility.yul\":6299:6310   */\n      swap1\n      pop\n        /* \"#utility.yul\":6337:6341   */\n      0x20\n        /* \"#utility.yul\":6332:6335   */\n      dup3\n        /* \"#utility.yul\":6328:6342   */\n      add\n        /* \"#utility.yul\":6320:6342   */\n      swap1\n      pop\n        /* \"#utility.yul\":6186:6349   */\n      swap2\n      swap1\n      pop\n      jump\t// out\n        /* \"#utility.yul\":6355:6514   */\n    tag_151:\n        /* \"#utility.yul\":6429:6440   */\n      0x00\n        /* \"#utility.yul\":6463:6469   */\n      dup3\n        /* \"#utility.yul\":6458:6461   */\n      dup3\n        /* \"#utility.yul\":6451:6470   */\n      mstore\n        /* \"#utility.yul\":6503:6507   */\n      0x20\n        /* \"#utility.yul\":6498:6501   */\n      dup3\n        /* \"#utility.yul\":6494:6508   */\n      add\n        /* \"#utility.yul\":6479:6508   */\n      swap1\n      pop\n        /* \"#utility.yul\":6355:6514   */\n      swap3\n      swap2\n      pop\n      pop\n      jump\t// out\n        /* \"#utility.yul\":6520:6877   */\n    tag_152:\n        /* \"#utility.yul\":6598:6601   */\n      0x00\n        /* \"#utility.yul\":6626:6665   */\n      tag_252\n        /* \"#utility.yul\":6659:6664   */\n      dup3\n        /* \"#utility.yul\":6626:6665   */\n      tag_143\n      jump\t// in\n    tag_252:\n        /* \"#utility.yul\":6681:6742   */\n      tag_253\n        /* \"#utility.yul\":6735:6741   */\n      dup2\n        /* \"#utility.yul\":6730:6733   */\n      dup6\n        /* \"#utility.yul\":6681:6742   */\n      tag_151\n      jump\t// in\n    tag_253:\n        /* \"#utility.yul\":6674:6742   */\n      swap4\n      pop\n        /* \"#utility.yul\":6751:6816   */\n      tag_254\n        /* \"#utility.yul\":6809:6815   */\n      dup2\n        /* \"#utility.yul\":6804:6807   */\n      dup6\n        /* \"#utility.yul\":6797:6801   */\n      0x20\n        /* \"#utility.yul\":6790:6795   */\n      dup7\n        /* \"#utility.yul\":6786:6802   */\n      add\n        /* \"#utility.yul\":6751:6816   */\n      tag_145\n      jump\t// in\n    tag_254:\n        /* \"#utility.yul\":6841:6870   */\n      tag_255\n        /* \"#utility.yul\":6863:6869   */\n      dup2\n        /* \"#utility.yul\":6841:6870   */\n      tag_132\n      jump\t// in\n    tag_255:\n        /* \"#utility.yul\":6836:6839   */\n      dup5\n        /* \"#utility.yul\":6832:6871   */\n      add\n        /* \"#utility.yul\":6825:6871   */\n      swap2\n      pop\n        /* \"#utility.yul\":6602:6877   */\n      pop\n        /* \"#utility.yul\":6520:6877   */\n      swap3\n      swap2\n      pop\n      pop\n      jump\t// out\n        /* \"#utility.yul\":6883:6991   */\n    tag_153:\n        /* \"#utility.yul\":6960:6984   */\n      tag_257\n        /* \"#utility.yul\":6978:6983   */\n      dup2\n        /* \"#utility.yul\":6960:6984   */\n      tag_140\n      jump\t// in\n    tag_257:\n        /* \"#utility.yul\":6955:6958   */\n      dup3\n        /* \"#utility.yul\":6948:6985   */\n      mstore\n        /* \"#utility.yul\":6883:6991   */\n      pop\n      pop\n      jump\t// out\n        /* \"#utility.yul\":7081:7700   */\n    tag_154:\n        /* \"#utility.yul\":7202:7205   */\n      0x00\n        /* \"#utility.yul\":7238:7242   */\n      0x40\n        /* \"#utility.yul\":7233:7236   */\n      dup4\n        /* \"#utility.yul\":7229:7243   */\n      add\n        /* \"#utility.yul\":7331:7335   */\n      0x00\n        /* \"#utility.yul\":7324:7329   */\n      dup4\n        /* \"#utility.yul\":7320:7336   */\n      add\n        /* \"#utility.yul\":7314:7337   */\n      mload\n        /* \"#utility.yul\":7384:7387   */\n      dup5\n        /* \"#utility.yul\":7378:7382   */\n      dup3\n        /* \"#utility.yul\":7374:7388   */\n      sub\n        /* \"#utility.yul\":7367:7371   */\n      0x00\n        /* \"#utility.yul\":7362:7365   */\n      dup7\n        /* \"#utility.yul\":7358:7372   */\n      add\n        /* \"#utility.yul\":7351:7389   */\n      mstore\n        /* \"#utility.yul\":7410:7483   */\n      tag_259\n        /* \"#utility.yul\":7478:7482   */\n      dup3\n        /* \"#utility.yul\":7464:7476   */\n      dup3\n        /* \"#utility.yul\":7410:7483   */\n      tag_152\n      jump\t// in\n    tag_259:\n        /* \"#utility.yul\":7402:7483   */\n      swap2\n      pop\n        /* \"#utility.yul\":7253:7494   */\n      pop\n        /* \"#utility.yul\":7581:7585   */\n      0x20\n        /* \"#utility.yul\":7574:7579   */\n      dup4\n        /* \"#utility.yul\":7570:7586   */\n      add\n        /* \"#utility.yul\":7564:7587   */\n      mload\n        /* \"#utility.yul\":7600:7663   */\n      tag_260\n        /* \"#utility.yul\":7657:7661   */\n      0x20\n        /* \"#utility.yul\":7652:7655   */\n      dup7\n        /* \"#utility.yul\":7648:7662   */\n      add\n        /* \"#utility.yul\":7634:7646   */\n      dup3\n        /* \"#utility.yul\":7600:7663   */\n      tag_153\n      jump\t// in\n    tag_260:\n        /* \"#utility.yul\":7504:7673   */\n      pop\n        /* \"#utility.yul\":7690:7694   */\n      dup1\n        /* \"#utility.yul\":7683:7694   */\n      swap2\n      pop\n        /* \"#utility.yul\":7207:7700   */\n      pop\n        /* \"#utility.yul\":7081:7700   */\n      swap3\n      swap2\n      pop\n      pop\n      jump\t// out\n        /* \"#utility.yul\":7706:7986   */\n    tag_155:\n        /* \"#utility.yul\":7837:7847   */\n      0x00\n        /* \"#utility.yul\":7872:7980   */\n      tag_262\n        /* \"#utility.yul\":7976:7979   */\n      dup4\n        /* \"#utility.yul\":7968:7974   */\n      dup4\n        /* \"#utility.yul\":7872:7980   */\n      tag_154\n      jump\t// in\n    tag_262:\n        /* \"#utility.yul\":7858:7980   */\n      swap1\n      pop\n        /* \"#utility.yul\":7706:7986   */\n      swap3\n      swap2\n      pop\n      pop\n      jump\t// out\n        /* \"#utility.yul\":7992:8136   */\n    tag_156:\n        /* \"#utility.yul\":8093:8097   */\n      0x00\n        /* \"#utility.yul\":8125:8129   */\n      0x20\n        /* \"#utility.yul\":8120:8123   */\n      dup3\n        /* \"#utility.yul\":8116:8130   */\n      add\n        /* \"#utility.yul\":8108:8130   */\n      swap1\n      pop\n        /* \"#utility.yul\":7992:8136   */\n      swap2\n      swap1\n      pop\n      jump\t// out\n        /* \"#utility.yul\":8230:9389   */\n    tag_157:\n        /* \"#utility.yul\":8411:8414   */\n      0x00\n        /* \"#utility.yul\":8440:8525   */\n      tag_265\n        /* \"#utility.yul\":8519:8524   */\n      dup3\n        /* \"#utility.yul\":8440:8525   */\n      tag_148\n      jump\t// in\n    tag_265:\n        /* \"#utility.yul\":8541:8658   */\n      tag_266\n        /* \"#utility.yul\":8651:8657   */\n      dup2\n        /* \"#utility.yul\":8646:8649   */\n      dup6\n        /* \"#utility.yul\":8541:8658   */\n      tag_149\n      jump\t// in\n    tag_266:\n        /* \"#utility.yul\":8534:8658   */\n      swap4\n      pop\n        /* \"#utility.yul\":8684:8687   */\n      dup4\n        /* \"#utility.yul\":8729:8733   */\n      0x20\n        /* \"#utility.yul\":8721:8727   */\n      dup3\n        /* \"#utility.yul\":8717:8734   */\n      mul\n        /* \"#utility.yul\":8712:8715   */\n      dup6\n        /* \"#utility.yul\":8708:8735   */\n      add\n        /* \"#utility.yul\":8759:8846   */\n      tag_267\n        /* \"#utility.yul\":8840:8845   */\n      dup6\n        /* \"#utility.yul\":8759:8846   */\n      tag_150\n      jump\t// in\n    tag_267:\n        /* \"#utility.yul\":8869:8876   */\n      dup1\n        /* \"#utility.yul\":8900:8901   */\n      0x00\n        /* \"#utility.yul\":8885:9344   */\n    tag_268:\n        /* \"#utility.yul\":8910:8916   */\n      dup6\n        /* \"#utility.yul\":8907:8908   */\n      dup2\n        /* \"#utility.yul\":8904:8917   */\n      lt\n        /* \"#utility.yul\":8885:9344   */\n      iszero\n      tag_270\n      jumpi\n        /* \"#utility.yul\":8981:8990   */\n      dup5\n        /* \"#utility.yul\":8975:8979   */\n      dup5\n        /* \"#utility.yul\":8971:8991   */\n      sub\n        /* \"#utility.yul\":8966:8969   */\n      dup10\n        /* \"#utility.yul\":8959:8992   */\n      mstore\n        /* \"#utility.yul\":9032:9038   */\n      dup2\n        /* \"#utility.yul\":9026:9039   */\n      mload\n        /* \"#utility.yul\":9060:9186   */\n      tag_271\n        /* \"#utility.yul\":9181:9185   */\n      dup6\n        /* \"#utility.yul\":9166:9179   */\n      dup3\n        /* \"#utility.yul\":9060:9186   */\n      tag_155\n      jump\t// in\n    tag_271:\n        /* \"#utility.yul\":9052:9186   */\n      swap5\n      pop\n        /* \"#utility.yul\":9209:9300   */\n      tag_272\n        /* \"#utility.yul\":9293:9299   */\n      dup4\n        /* \"#utility.yul\":9209:9300   */\n      tag_156\n      jump\t// in\n    tag_272:\n        /* \"#utility.yul\":9199:9300   */\n      swap3\n      pop\n        /* \"#utility.yul\":9329:9333   */\n      0x20\n        /* \"#utility.yul\":9324:9327   */\n      dup11\n        /* \"#utility.yul\":9320:9334   */\n      add\n        /* \"#utility.yul\":9313:9334   */\n      swap10\n      pop\n        /* \"#utility.yul\":8945:9344   */\n      pop\n        /* \"#utility.yul\":8932:8933   */\n      0x01\n        /* \"#utility.yul\":8929:8930   */\n      dup2\n        /* \"#utility.yul\":8925:8934   */\n      add\n        /* \"#utility.yul\":8920:8934   */\n      swap1\n      pop\n        /* \"#utility.yul\":8885:9344   */\n      jump(tag_268)\n    tag_270:\n        /* \"#utility.yul\":8889:8903   */\n      pop\n        /* \"#utility.yul\":9360:9364   */\n      dup3\n        /* \"#utility.yul\":9353:9364   */\n      swap8\n      pop\n        /* \"#utility.yul\":9380:9383   */\n      dup8\n        /* \"#utility.yul\":9373:9383   */\n      swap6\n      pop\n        /* \"#utility.yul\":8416:9389   */\n      pop\n      pop\n      pop\n      pop\n      pop\n        /* \"#utility.yul\":8230:9389   */\n      swap3\n      swap2\n      pop\n      pop\n      jump\t// out\n        /* \"#utility.yul\":9395:9892   */\n    tag_40:\n        /* \"#utility.yul\":9600:9604   */\n      0x00\n        /* \"#utility.yul\":9638:9640   */\n      0x20\n        /* \"#utility.yul\":9627:9636   */\n      dup3\n        /* \"#utility.yul\":9623:9641   */\n      add\n        /* \"#utility.yul\":9615:9641   */\n      swap1\n      pop\n        /* \"#utility.yul\":9687:9696   */\n      dup2\n        /* \"#utility.yul\":9681:9685   */\n      dup2\n        /* \"#utility.yul\":9677:9697   */\n      sub\n        /* \"#utility.yul\":9673:9674   */\n      0x00\n        /* \"#utility.yul\":9662:9671   */\n      dup4\n        /* \"#utility.yul\":9658:9675   */\n      add\n        /* \"#utility.yul\":9651:9698   */\n      mstore\n        /* \"#utility.yul\":9715:9885   */\n      tag_274\n        /* \"#utility.yul\":9880:9884   */\n      dup2\n        /* \"#utility.yul\":9871:9877   */\n      dup5\n        /* \"#utility.yul\":9715:9885   */\n      tag_157\n      jump\t// in\n    tag_274:\n        /* \"#utility.yul\":9707:9885   */\n      swap1\n      pop\n        /* \"#utility.yul\":9395:9892   */\n      swap3\n      swap2\n      pop\n      pop\n      jump\t// out\n        /* \"#utility.yul\":9898:10407   */\n    tag_46:\n        /* \"#utility.yul\":9967:9973   */\n      0x00\n        /* \"#utility.yul\":10016:10018   */\n      0x20\n        /* \"#utility.yul\":10004:10013   */\n      dup3\n        /* \"#utility.yul\":9995:10002   */\n      dup5\n        /* \"#utility.yul\":9991:10014   */\n      sub\n        /* \"#utility.yul\":9987:10019   */\n      slt\n        /* \"#utility.yul\":9984:10103   */\n      iszero\n      tag_276\n      jumpi\n        /* \"#utility.yul\":10022:10101   */\n      tag_277\n      tag_128\n      jump\t// in\n    tag_277:\n        /* \"#utility.yul\":9984:10103   */\n    tag_276:\n        /* \"#utility.yul\":10170:10171   */\n      0x00\n        /* \"#utility.yul\":10159:10168   */\n      dup3\n        /* \"#utility.yul\":10155:10172   */\n      add\n        /* \"#utility.yul\":10142:10173   */\n      calldataload\n        /* \"#utility.yul\":10200:10218   */\n      0xffffffffffffffff\n        /* \"#utility.yul\":10192:10198   */\n      dup2\n        /* \"#utility.yul\":10189:10219   */\n      gt\n        /* \"#utility.yul\":10186:10303   */\n      iszero\n      tag_278\n      jumpi\n        /* \"#utility.yul\":10222:10301   */\n      tag_279\n      tag_129\n      jump\t// in\n    tag_279:\n        /* \"#utility.yul\":10186:10303   */\n    tag_278:\n        /* \"#utility.yul\":10327:10390   */\n      tag_280\n        /* \"#utility.yul\":10382:10389   */\n      dup5\n        /* \"#utility.yul\":10373:10379   */\n      dup3\n        /* \"#utility.yul\":10362:10371   */\n      dup6\n        /* \"#utility.yul\":10358:10380   */\n      add\n        /* \"#utility.yul\":10327:10390   */\n      tag_139\n      jump\t// in\n    tag_280:\n        /* \"#utility.yul\":10317:10390   */\n      swap2\n      pop\n        /* \"#utility.yul\":10113:10400   */\n      pop\n        /* \"#utility.yul\":9898:10407   */\n      swap3\n      swap2\n      pop\n      pop\n      jump\t// out\n        /* \"#utility.yul\":10413:10549   */\n    tag_158:\n        /* \"#utility.yul\":10502:10508   */\n      0x00\n        /* \"#utility.yul\":10536:10541   */\n      dup2\n        /* \"#utility.yul\":10530:10542   */\n      mload\n        /* \"#utility.yul\":10520:10542   */\n      swap1\n      pop\n        /* \"#utility.yul\":10413:10549   */\n      swap2\n      swap1\n      pop\n      jump\t// out\n        /* \"#utility.yul\":10555:10761   */\n    tag_159:\n        /* \"#utility.yul\":10676:10687   */\n      0x00\n        /* \"#utility.yul\":10710:10716   */\n      dup3\n        /* \"#utility.yul\":10705:10708   */\n      dup3\n        /* \"#utility.yul\":10698:10717   */\n      mstore\n        /* \"#utility.yul\":10750:10754   */\n      0x20\n        /* \"#utility.yul\":10745:10748   */\n      dup3\n        /* \"#utility.yul\":10741:10755   */\n      add\n        /* \"#utility.yul\":10726:10755   */\n      swap1\n      pop\n        /* \"#utility.yul\":10555:10761   */\n      swap3\n      swap2\n      pop\n      pop\n      jump\t// out\n        /* \"#utility.yul\":10767:10921   */\n    tag_160:\n        /* \"#utility.yul\":10856:10860   */\n      0x00\n        /* \"#utility.yul\":10879:10882   */\n      dup2\n        /* \"#utility.yul\":10871:10882   */\n      swap1\n      pop\n        /* \"#utility.yul\":10909:10913   */\n      0x20\n        /* \"#utility.yul\":10904:10907   */\n      dup3\n        /* \"#utility.yul\":10900:10914   */\n      add\n        /* \"#utility.yul\":10892:10914   */\n      swap1\n      pop\n        /* \"#utility.yul\":10767:10921   */\n      swap2\n      swap1\n      pop\n      jump\t// out\n        /* \"#utility.yul\":10993:11582   */\n    tag_161:\n        /* \"#utility.yul\":11096:11099   */\n      0x00\n        /* \"#utility.yul\":11132:11136   */\n      0x40\n        /* \"#utility.yul\":11127:11130   */\n      dup4\n        /* \"#utility.yul\":11123:11137   */\n      add\n        /* \"#utility.yul\":11219:11223   */\n      0x00\n        /* \"#utility.yul\":11212:11217   */\n      dup4\n        /* \"#utility.yul\":11208:11224   */\n      add\n        /* \"#utility.yul\":11202:11225   */\n      mload\n        /* \"#utility.yul\":11272:11275   */\n      dup5\n        /* \"#utility.yul\":11266:11270   */\n      dup3\n        /* \"#utility.yul\":11262:11276   */\n      sub\n        /* \"#utility.yul\":11255:11259   */\n      0x00\n        /* \"#utility.yul\":11250:11253   */\n      dup7\n        /* \"#utility.yul\":11246:11260   */\n      add\n        /* \"#utility.yul\":11239:11277   */\n      mstore\n        /* \"#utility.yul\":11298:11371   */\n      tag_285\n        /* \"#utility.yul\":11366:11370   */\n      dup3\n        /* \"#utility.yul\":11352:11364   */\n      dup3\n        /* \"#utility.yul\":11298:11371   */\n      tag_152\n      jump\t// in\n    tag_285:\n        /* \"#utility.yul\":11290:11371   */\n      swap2\n      pop\n        /* \"#utility.yul\":11147:11382   */\n      pop\n        /* \"#utility.yul\":11463:11467   */\n      0x20\n        /* \"#utility.yul\":11456:11461   */\n      dup4\n        /* \"#utility.yul\":11452:11468   */\n      add\n        /* \"#utility.yul\":11446:11469   */\n      mload\n        /* \"#utility.yul\":11482:11545   */\n      tag_286\n        /* \"#utility.yul\":11539:11543   */\n      0x20\n        /* \"#utility.yul\":11534:11537   */\n      dup7\n        /* \"#utility.yul\":11530:11544   */\n      add\n        /* \"#utility.yul\":11516:11528   */\n      dup3\n        /* \"#utility.yul\":11482:11545   */\n      tag_153\n      jump\t// in\n    tag_286:\n        /* \"#utility.yul\":11392:11555   */\n      pop\n        /* \"#utility.yul\":11572:11576   */\n      dup1\n        /* \"#utility.yul\":11565:11576   */\n      swap2\n      pop\n        /* \"#utility.yul\":11101:11582   */\n      pop\n        /* \"#utility.yul\":10993:11582   */\n      swap3\n      swap2\n      pop\n      pop\n      jump\t// out\n        /* \"#utility.yul\":11588:11832   */\n    tag_162:\n        /* \"#utility.yul\":11701:11711   */\n      0x00\n        /* \"#utility.yul\":11736:11826   */\n      tag_288\n        /* \"#utility.yul\":11822:11825   */\n      dup4\n        /* \"#utility.yul\":11814:11820   */\n      dup4\n        /* \"#utility.yul\":11736:11826   */\n      tag_161\n      jump\t// in\n    tag_288:\n        /* \"#utility.yul\":11722:11826   */\n      swap1\n      pop\n        /* \"#utility.yul\":11588:11832   */\n      swap3\n      swap2\n      pop\n      pop\n      jump\t// out\n        /* \"#utility.yul\":11838:11973   */\n    tag_163:\n        /* \"#utility.yul\":11930:11934   */\n      0x00\n        /* \"#utility.yul\":11962:11966   */\n      0x20\n        /* \"#utility.yul\":11957:11960   */\n      dup3\n        /* \"#utility.yul\":11953:11967   */\n      add\n        /* \"#utility.yul\":11945:11967   */\n      swap1\n      pop\n        /* \"#utility.yul\":11838:11973   */\n      swap2\n      swap1\n      pop\n      jump\t// out\n        /* \"#utility.yul\":12049:13136   */\n    tag_164:\n        /* \"#utility.yul\":12212:12215   */\n      0x00\n        /* \"#utility.yul\":12241:12317   */\n      tag_291\n        /* \"#utility.yul\":12311:12316   */\n      dup3\n        /* \"#utility.yul\":12241:12317   */\n      tag_158\n      jump\t// in\n    tag_291:\n        /* \"#utility.yul\":12333:12441   */\n      tag_292\n        /* \"#utility.yul\":12434:12440   */\n      dup2\n        /* \"#utility.yul\":12429:12432   */\n      dup6\n        /* \"#utility.yul\":12333:12441   */\n      tag_159\n      jump\t// in\n    tag_292:\n        /* \"#utility.yul\":12326:12441   */\n      swap4\n      pop\n        /* \"#utility.yul\":12467:12470   */\n      dup4\n        /* \"#utility.yul\":12512:12516   */\n      0x20\n        /* \"#utility.yul\":12504:12510   */\n      dup3\n        /* \"#utility.yul\":12500:12517   */\n      mul\n        /* \"#utility.yul\":12495:12498   */\n      dup6\n        /* \"#utility.yul\":12491:12518   */\n      add\n        /* \"#utility.yul\":12542:12620   */\n      tag_293\n        /* \"#utility.yul\":12614:12619   */\n      dup6\n        /* \"#utility.yul\":12542:12620   */\n      tag_160\n      jump\t// in\n    tag_293:\n        /* \"#utility.yul\":12643:12650   */\n      dup1\n        /* \"#utility.yul\":12674:12675   */\n      0x00\n        /* \"#utility.yul\":12659:13091   */\n    tag_294:\n        /* \"#utility.yul\":12684:12690   */\n      dup6\n        /* \"#utility.yul\":12681:12682   */\n      dup2\n        /* \"#utility.yul\":12678:12691   */\n      lt\n        /* \"#utility.yul\":12659:13091   */\n      iszero\n      tag_296\n      jumpi\n        /* \"#utility.yul\":12755:12764   */\n      dup5\n        /* \"#utility.yul\":12749:12753   */\n      dup5\n        /* \"#utility.yul\":12745:12765   */\n      sub\n        /* \"#utility.yul\":12740:12743   */\n      dup10\n        /* \"#utility.yul\":12733:12766   */\n      mstore\n        /* \"#utility.yul\":12806:12812   */\n      dup2\n        /* \"#utility.yul\":12800:12813   */\n      mload\n        /* \"#utility.yul\":12834:12942   */\n      tag_297\n        /* \"#utility.yul\":12937:12941   */\n      dup6\n        /* \"#utility.yul\":12922:12935   */\n      dup3\n        /* \"#utility.yul\":12834:12942   */\n      tag_162\n      jump\t// in\n    tag_297:\n        /* \"#utility.yul\":12826:12942   */\n      swap5\n      pop\n        /* \"#utility.yul\":12965:13047   */\n      tag_298\n        /* \"#utility.yul\":13040:13046   */\n      dup4\n        /* \"#utility.yul\":12965:13047   */\n      tag_163\n      jump\t// in\n    tag_298:\n        /* \"#utility.yul\":12955:13047   */\n      swap3\n      pop\n        /* \"#utility.yul\":13076:13080   */\n      0x20\n        /* \"#utility.yul\":13071:13074   */\n      dup11\n        /* \"#utility.yul\":13067:13081   */\n      add\n        /* \"#utility.yul\":13060:13081   */\n      swap10\n      pop\n        /* \"#utility.yul\":12719:13091   */\n      pop\n        /* \"#utility.yul\":12706:12707   */\n      0x01\n        /* \"#utility.yul\":12703:12704   */\n      dup2\n        /* \"#utility.yul\":12699:12708   */\n      add\n        /* \"#utility.yul\":12694:12708   */\n      swap1\n      pop\n        /* \"#utility.yul\":12659:13091   */\n      jump(tag_294)\n    tag_296:\n        /* \"#utility.yul\":12663:12677   */\n      pop\n        /* \"#utility.yul\":13107:13111   */\n      dup3\n        /* \"#utility.yul\":13100:13111   */\n      swap8\n      pop\n        /* \"#utility.yul\":13127:13130   */\n      dup8\n        /* \"#utility.yul\":13120:13130   */\n      swap6\n      pop\n        /* \"#utility.yul\":12217:13136   */\n      pop\n      pop\n      pop\n      pop\n      pop\n        /* \"#utility.yul\":12049:13136   */\n      swap3\n      swap2\n      pop\n      pop\n      jump\t// out\n        /* \"#utility.yul\":13142:13603   */\n    tag_57:\n        /* \"#utility.yul\":13329:13333   */\n      0x00\n        /* \"#utility.yul\":13367:13369   */\n      0x20\n        /* \"#utility.yul\":13356:13365   */\n      dup3\n        /* \"#utility.yul\":13352:13370   */\n      add\n        /* \"#utility.yul\":13344:13370   */\n      swap1\n      pop\n        /* \"#utility.yul\":13416:13425   */\n      dup2\n        /* \"#utility.yul\":13410:13414   */\n      dup2\n        /* \"#utility.yul\":13406:13426   */\n      sub\n        /* \"#utility.yul\":13402:13403   */\n      0x00\n        /* \"#utility.yul\":13391:13400   */\n      dup4\n        /* \"#utility.yul\":13387:13404   */\n      add\n        /* \"#utility.yul\":13380:13427   */\n      mstore\n        /* \"#utility.yul\":13444:13596   */\n      tag_300\n        /* \"#utility.yul\":13591:13595   */\n      dup2\n        /* \"#utility.yul\":13582:13588   */\n      dup5\n        /* \"#utility.yul\":13444:13596   */\n      tag_164\n      jump\t// in\n    tag_300:\n        /* \"#utility.yul\":13436:13596   */\n      swap1\n      pop\n        /* \"#utility.yul\":13142:13603   */\n      swap3\n      swap2\n      pop\n      pop\n      jump\t// out\n        /* \"#utility.yul\":13609:13789   */\n    tag_165:\n        /* \"#utility.yul\":13657:13734   */\n      0x4e487b7100000000000000000000000000000000000000000000000000000000\n        /* \"#utility.yul\":13654:13655   */\n      0x00\n        /* \"#utility.yul\":13647:13735   */\n      mstore\n        /* \"#utility.yul\":13754:13758   */\n      0x22\n        /* \"#utility.yul\":13751:13752   */\n      0x04\n        /* \"#utility.yul\":13744:13759   */\n      mstore\n        /* \"#utility.yul\":13778:13782   */\n      0x24\n        /* \"#utility.yul\":13775:13776   */\n      0x00\n        /* \"#utility.yul\":13768:13783   */\n      revert\n        /* \"#utility.yul\":13795:14115   */\n    tag_77:\n        /* \"#utility.yul\":13839:13845   */\n      0x00\n        /* \"#utility.yul\":13876:13877   */\n      0x02\n        /* \"#utility.yul\":13870:13874   */\n      dup3\n        /* \"#utility.yul\":13866:13878   */\n      div\n        /* \"#utility.yul\":13856:13878   */\n      swap1\n      pop\n        /* \"#utility.yul\":13923:13924   */\n      0x01\n        /* \"#utility.yul\":13917:13921   */\n      dup3\n        /* \"#utility.yul\":13913:13925   */\n      and\n        /* \"#utility.yul\":13944:13962   */\n      dup1\n        /* \"#utility.yul\":13934:14015   */\n      tag_303\n      jumpi\n        /* \"#utility.yul\":14000:14004   */\n      0x7f\n        /* \"#utility.yul\":13992:13998   */\n      dup3\n        /* \"#utility.yul\":13988:14005   */\n      and\n        /* \"#utility.yul\":13978:14005   */\n      swap2\n      pop\n        /* \"#utility.yul\":13934:14015   */\n    tag_303:\n        /* \"#utility.yul\":14062:14064   */\n      0x20\n        /* \"#utility.yul\":14054:14060   */\n      dup3\n        /* \"#utility.yul\":14051:14065   */\n      lt\n        /* \"#utility.yul\":14031:14049   */\n      dup2\n        /* \"#utility.yul\":14028:14066   */\n      sub\n        /* \"#utility.yul\":14025:14109   */\n      tag_304\n      jumpi\n        /* \"#utility.yul\":14081:14099   */\n      tag_305\n      tag_165\n      jump\t// in\n    tag_305:\n        /* \"#utility.yul\":14025:14109   */\n    tag_304:\n        /* \"#utility.yul\":13846:14115   */\n      pop\n        /* \"#utility.yul\":13795:14115   */\n      swap2\n      swap1\n      pop\n      jump\t// out\n        /* \"#utility.yul\":14121:14262   */\n    tag_166:\n        /* \"#utility.yul\":14170:14174   */\n      0x00\n        /* \"#utility.yul\":14193:14196   */\n      dup2\n        /* \"#utility.yul\":14185:14196   */\n      swap1\n      pop\n        /* \"#utility.yul\":14216:14219   */\n      dup2\n        /* \"#utility.yul\":14213:14214   */\n      0x00\n        /* \"#utility.yul\":14206:14220   */\n      mstore\n        /* \"#utility.yul\":14250:14254   */\n      0x20\n        /* \"#utility.yul\":14247:14248   */\n      0x00\n        /* \"#utility.yul\":14237:14255   */\n      keccak256\n        /* \"#utility.yul\":14229:14255   */\n      swap1\n      pop\n        /* \"#utility.yul\":14121:14262   */\n      swap2\n      swap1\n      pop\n      jump\t// out\n        /* \"#utility.yul\":14268:14361   */\n    tag_167:\n        /* \"#utility.yul\":14305:14311   */\n      0x00\n        /* \"#utility.yul\":14352:14354   */\n      0x20\n        /* \"#utility.yul\":14347:14349   */\n      0x1f\n        /* \"#utility.yul\":14340:14345   */\n      dup4\n        /* \"#utility.yul\":14336:14350   */\n      add\n        /* \"#utility.yul\":14332:14355   */\n      div\n        /* \"#utility.yul\":14322:14355   */\n      swap1\n      pop\n        /* \"#utility.yul\":14268:14361   */\n      swap2\n      swap1\n      pop\n      jump\t// out\n        /* \"#utility.yul\":14367:14474   */\n    tag_168:\n        /* \"#utility.yul\":14411:14419   */\n      0x00\n        /* \"#utility.yul\":14461:14466   */\n      dup3\n        /* \"#utility.yul\":14455:14459   */\n      dup3\n        /* \"#utility.yul\":14451:14467   */\n      shl\n        /* \"#utility.yul\":14430:14467   */\n      swap1\n      pop\n        /* \"#utility.yul\":14367:14474   */\n      swap3\n      swap2\n      pop\n      pop\n      jump\t// out\n        /* \"#utility.yul\":14480:14873   */\n    tag_169:\n        /* \"#utility.yul\":14549:14555   */\n      0x00\n        /* \"#utility.yul\":14599:14600   */\n      0x08\n        /* \"#utility.yul\":14587:14597   */\n      dup4\n        /* \"#utility.yul\":14583:14601   */\n      mul\n        /* \"#utility.yul\":14622:14719   */\n      tag_310\n        /* \"#utility.yul\":14652:14718   */\n      0xffffffffffffffffffffffffffffffffffffffffffffffffffffffffffffffff\n        /* \"#utility.yul\":14641:14650   */\n      dup3\n        /* \"#utility.yul\":14622:14719   */\n      tag_168\n      jump\t// in\n    tag_310:\n        /* \"#utility.yul\":14740:14779   */\n      tag_311\n        /* \"#utility.yul\":14770:14778   */\n      dup7\n        /* \"#utility.yul\":14759:14768   */\n      dup4\n        /* \"#utility.yul\":14740:14779   */\n      tag_168\n      jump\t// in\n    tag_311:\n        /* \"#utility.yul\":14728:14779   */\n      swap6\n      pop\n        /* \"#utility.yul\":14812:14816   */\n      dup1\n        /* \"#utility.yul\":14808:14817   */\n      not\n        /* \"#utility.yul\":14801:14806   */\n      dup5\n        /* \"#utility.yul\":14797:14818   */\n      and\n        /* \"#utility.yul\":14788:14818   */\n      swap4\n      pop\n        /* \"#utility.yul\":14861:14865   */\n      dup1\n        /* \"#utility.yul\":14851:14859   */\n      dup7\n        /* \"#utility.yul\":14847:14866   */\n      and\n        /* \"#utility.yul\":14840:14845   */\n      dup5\n        /* \"#utility.yul\":14837:14867   */\n      or\n        /* \"#utility.yul\":14827:14867   */\n      swap3\n      pop\n        /* \"#utility.yul\":14556:14873   */\n      pop\n      pop\n        /* \"#utility.yul\":14480:14873   */\n      swap4\n      swap3\n      pop\n      pop\n      pop\n      jump\t// out\n        /* \"#utility.yul\":14879:14939   */\n    tag_170:\n        /* \"#utility.yul\":14907:14910   */\n      0x00\n        /* \"#utility.yul\":14928:14933   */\n      dup2\n        /* \"#utility.yul\":14921:14933   */\n      swap1\n      pop\n        /* \"#utility.yul\":14879:14939   */\n      swap2\n      swap1\n      pop\n      jump\t// out\n        /* \"#utility.yul\":14945:15087   */\n    tag_171:\n        /* \"#utility.yul\":14995:15004   */\n      0x00\n        /* \"#utility.yul\":15028:15081   */\n      tag_314\n        /* \"#utility.yul\":15046:15080   */\n      tag_315\n        /* \"#utility.yul\":15055:15079   */\n      tag_316\n        /* \"#utility.yul\":15073:15078   */\n      dup5\n        /* \"#utility.yul\":15055:15079   */\n      tag_140\n      jump\t// in\n    tag_316:\n        /* \"#utility.yul\":15046:15080   */\n      tag_170\n      jump\t// in\n    tag_315:\n        /* \"#utility.yul\":15028:15081   */\n      tag_140\n      jump\t// in\n    tag_314:\n        /* \"#utility.yul\":15015:15081   */\n      swap1\n      pop\n        /* \"#utility.yul\":14945:15087   */\n      swap2\n      swap1\n      pop\n      jump\t// out\n        /* \"#utility.yul\":15093:15168   */\n    tag_172:\n        /* \"#utility.yul\":15136:15139   */\n      0x00\n        /* \"#utility.yul\":15157:15162   */\n      dup2\n        /* \"#utility.yul\":15150:15162   */\n      swap1\n      pop\n        /* \"#utility.yul\":15093:15168   */\n      swap2\n      swap1\n      pop\n      jump\t// out\n        /* \"#utility.yul\":15174:15443   */\n    tag_173:\n        /* \"#utility.yul\":15284:15323   */\n      tag_319\n        /* \"#utility.yul\":15315:15322   */\n      dup4\n        /* \"#utility.yul\":15284:15323   */\n      tag_171\n      jump\t// in\n    tag_319:\n        /* \"#utility.yul\":15345:15436   */\n      tag_320\n        /* \"#utility.yul\":15394:15435   */\n      tag_321\n        /* \"#utility.yul\":15418:15434   */\n      dup3\n        /* \"#utility.yul\":15394:15435   */\n      tag_172\n      jump\t// in\n    tag_321:\n        /* \"#utility.yul\":15386:15392   */\n      dup5\n        /* \"#utility.yul\":15379:15383   */\n      dup5\n        /* \"#utility.yul\":15373:15384   */\n      sload\n        /* \"#utility.yul\":15345:15436   */\n      tag_169\n      jump\t// in\n    tag_320:\n        /* \"#utility.yul\":15339:15343   */\n      dup3\n        /* \"#utility.yul\":15332:15437   */\n      sstore\n        /* \"#utility.yul\":15250:15443   */\n      pop\n        /* \"#utility.yul\":15174:15443   */\n      pop\n      pop\n      pop\n      jump\t// out\n        /* \"#utility.yul\":15449:15522   */\n    tag_174:\n        /* \"#utility.yul\":15494:15497   */\n      0x00\n        /* \"#utility.yul\":15515:15516   */\n      0x00\n        /* \"#utility.yul\":15508:15516   */\n      swap1\n      pop\n        /* \"#utility.yul\":15449:15522   */\n      swap1\n      jump\t// out\n        /* \"#utility.yul\":15528:15717   */\n    tag_175:\n        /* \"#utility.yul\":15605:15637   */\n      tag_324\n      tag_174\n      jump\t// in\n    tag_324:\n        /* \"#utility.yul\":15646:15711   */\n      tag_325\n        /* \"#utility.yul\":15704:15710   */\n      dup2\n        /* \"#utility.yul\":15696:15702   */\n      dup5\n        /* \"#utility.yul\":15690:15694   */\n      dup5\n        /* \"#utility.yul\":15646:15711   */\n      tag_173\n      jump\t// in\n    tag_325:\n        /* \"#utility.yul\":15581:15717   */\n      pop\n        /* \"#utility.yul\":15528:15717   */\n      pop\n      pop\n      jump\t// out\n        /* \"#utility.yul\":15723:15909   */\n    tag_176:\n        /* \"#utility.yul\":15783:15903   */\n    tag_327:\n        /* \"#utility.yul\":15800:15803   */\n      dup2\n        /* \"#utility.yul\":15793:15798   */\n      dup2\n        /* \"#utility.yul\":15790:15804   */\n      lt\n        /* \"#utility.yul\":15783:15903   */\n      iszero\n      tag_329\n      jumpi\n        /* \"#utility.yul\":15854:15893   */\n      tag_330\n        /* \"#utility.yul\":15891:15892   */\n      0x00\n        /* \"#utility.yul\":15884:15889   */\n      dup3\n        /* \"#utility.yul\":15854:15893   */\n      tag_175\n      jump\t// in\n    tag_330:\n        /* \"#utility.yul\":15827:15828   */\n      0x01\n        /* \"#utility.yul\":15820:15825   */\n      dup2\n        /* \"#utility.yul\":15816:15829   */\n      add\n        /* \"#utility.yul\":15807:15829   */\n      swap1\n      pop\n        /* \"#utility.yul\":15783:15903   */\n      jump(tag_327)\n    tag_329:\n        /* \"#utility.yul\":15723:15909   */\n      pop\n      pop\n      jump\t// out\n        /* \"#utility.yul\":15915:16458   */\n    tag_177:\n        /* \"#utility.yul\":16016:16018   */\n      0x1f\n        /* \"#utility.yul\":16011:16014   */\n      dup3\n        /* \"#utility.yul\":16008:16019   */\n      gt\n        /* \"#utility.yul\":16005:16451   */\n      iszero\n      tag_332\n      jumpi\n        /* \"#utility.yul\":16050:16088   */\n      tag_333\n        /* \"#utility.yul\":16082:16087   */\n      dup2\n        /* \"#utility.yul\":16050:16088   */\n      tag_166\n      jump\t// in\n    tag_333:\n        /* \"#utility.yul\":16134:16163   */\n      tag_334\n        /* \"#utility.yul\":16152:16162   */\n      dup5\n        /* \"#utility.yul\":16134:16163   */\n      tag_167\n      jump\t// in\n    tag_334:\n        /* \"#utility.yul\":16124:16132   */\n      dup2\n        /* \"#utility.yul\":16120:16164   */\n      add\n        /* \"#utility.yul\":16317:16319   */\n      0x20\n        /* \"#utility.yul\":16305:16315   */\n      dup6\n        /* \"#utility.yul\":16302:16320   */\n      lt\n        /* \"#utility.yul\":16299:16348   */\n      iszero\n      tag_335\n      jumpi\n        /* \"#utility.yul\":16338:16346   */\n      dup2\n        /* \"#utility.yul\":16323:16346   */\n      swap1\n      pop\n        /* \"#utility.yul\":16299:16348   */\n    tag_335:\n        /* \"#utility.yul\":16361:16441   */\n      tag_336\n        /* \"#utility.yul\":16417:16439   */\n      tag_337\n        /* \"#utility.yul\":16435:16438   */\n      dup6\n        /* \"#utility.yul\":16417:16439   */\n      tag_167\n      jump\t// in\n    tag_337:\n        /* \"#utility.yul\":16407:16415   */\n      dup4\n        /* \"#utility.yul\":16403:16440   */\n      add\n        /* \"#utility.yul\":16390:16401   */\n      dup3\n        /* \"#utility.yul\":16361:16441   */\n      tag_176\n      jump\t// in\n    tag_336:\n        /* \"#utility.yul\":16020:16451   */\n      pop\n      pop\n        /* \"#utility.yul\":16005:16451   */\n    tag_332:\n        /* \"#utility.yul\":15915:16458   */\n      pop\n      pop\n      pop\n      jump\t// out\n        /* \"#utility.yul\":16464:16581   */\n    tag_178:\n        /* \"#utility.yul\":16518:16526   */\n      0x00\n        /* \"#utility.yul\":16568:16573   */\n      dup3\n        /* \"#utility.yul\":16562:16566   */\n      dup3\n        /* \"#utility.yul\":16558:16574   */\n      shr\n        /* \"#utility.yul\":16537:16574   */\n      swap1\n      pop\n        /* \"#utility.yul\":16464:16581   */\n      swap3\n      swap2\n      pop\n      pop\n      jump\t// out\n        /* \"#utility.yul\":16587:16756   */\n    tag_179:\n        /* \"#utility.yul\":16631:16637   */\n      0x00\n        /* \"#utility.yul\":16664:16715   */\n      tag_340\n        /* \"#utility.yul\":16712:16713   */\n      0x00\n        /* \"#utility.yul\":16708:16714   */\n      not\n        /* \"#utility.yul\":16700:16705   */\n      dup5\n        /* \"#utility.yul\":16697:16698   */\n      0x08\n        /* \"#utility.yul\":16693:16706   */\n      mul\n        /* \"#utility.yul\":16664:16715   */\n      tag_178\n      jump\t// in\n    tag_340:\n        /* \"#utility.yul\":16660:16716   */\n      not\n        /* \"#utility.yul\":16745:16749   */\n      dup1\n        /* \"#utility.yul\":16739:16743   */\n      dup4\n        /* \"#utility.yul\":16735:16750   */\n      and\n        /* \"#utility.yul\":16725:16750   */\n      swap2\n      pop\n        /* \"#utility.yul\":16638:16756   */\n      pop\n        /* \"#utility.yul\":16587:16756   */\n      swap3\n      swap2\n      pop\n      pop\n      jump\t// out\n        /* \"#utility.yul\":16761:17056   */\n    tag_180:\n        /* \"#utility.yul\":16837:16841   */\n      0x00\n        /* \"#utility.yul\":16983:17012   */\n      tag_342\n        /* \"#utility.yul\":17008:17011   */\n      dup4\n        /* \"#utility.yul\":17002:17006   */\n      dup4\n        /* \"#utility.yul\":16983:17012   */\n      tag_179\n      jump\t// in\n    tag_342:\n        /* \"#utility.yul\":16975:17012   */\n      swap2\n      pop\n        /* \"#utility.yul\":17045:17048   */\n      dup3\n        /* \"#utility.yul\":17042:17043   */\n      0x02\n        /* \"#utility.yul\":17038:17049   */\n      mul\n        /* \"#utility.yul\":17032:17036   */\n      dup3\n        /* \"#utility.yul\":17029:17050   */\n      or\n        /* \"#utility.yul\":17021:17050   */\n      swap1\n      pop\n        /* \"#utility.yul\":16761:17056   */\n      swap3\n      swap2\n      pop\n      pop\n      jump\t// out\n        /* \"#utility.yul\":17061:18456   */\n    tag_72:\n        /* \"#utility.yul\":17178:17215   */\n      tag_344\n        /* \"#utility.yul\":17211:17214   */\n      dup3\n        /* \"#utility.yul\":17178:17215   */\n      tag_143\n      jump\t// in\n    tag_344:\n        /* \"#utility.yul\":17280:17298   */\n      0xffffffffffffffff\n        /* \"#utility.yul\":17272:17278   */\n      dup2\n        /* \"#utility.yul\":17269:17299   */\n      gt\n        /* \"#utility.yul\":17266:17322   */\n      iszero\n      tag_345\n      jumpi\n        /* \"#utility.yul\":17302:17320   */\n      tag_346\n      tag_133\n      jump\t// in\n    tag_346:\n        /* \"#utility.yul\":17266:17322   */\n    tag_345:\n        /* \"#utility.yul\":17346:17384   */\n      tag_347\n        /* \"#utility.yul\":17378:17382   */\n      dup3\n        /* \"#utility.yul\":17372:17383   */\n      sload\n        /* \"#utility.yul\":17346:17384   */\n      tag_77\n      jump\t// in\n    tag_347:\n        /* \"#utility.yul\":17431:17498   */\n      tag_348\n        /* \"#utility.yul\":17491:17497   */\n      dup3\n        /* \"#utility.yul\":17483:17489   */\n      dup3\n        /* \"#utility.yul\":17477:17481   */\n      dup6\n        /* \"#utility.yul\":17431:17498   */\n      tag_177\n      jump\t// in\n    tag_348:\n        /* \"#utility.yul\":17525:17526   */\n      0x00\n        /* \"#utility.yul\":17549:17553   */\n      0x20\n        /* \"#utility.yul\":17536:17553   */\n      swap1\n      pop\n        /* \"#utility.yul\":17581:17583   */\n      0x1f\n        /* \"#utility.yul\":17573:17579   */\n      dup4\n        /* \"#utility.yul\":17570:17584   */\n      gt\n        /* \"#utility.yul\":17598:17599   */\n      0x01\n        /* \"#utility.yul\":17593:18211   */\n      dup2\n      eq\n      tag_350\n      jumpi\n        /* \"#utility.yul\":18255:18256   */\n      0x00\n        /* \"#utility.yul\":18272:18278   */\n      dup5\n        /* \"#utility.yul\":18269:18346   */\n      iszero\n      tag_351\n      jumpi\n        /* \"#utility.yul\":18321:18330   */\n      dup3\n        /* \"#utility.yul\":18316:18319   */\n      dup8\n        /* \"#utility.yul\":18312:18331   */\n      add\n        /* \"#utility.yul\":18306:18332   */\n      mload\n        /* \"#utility.yul\":18297:18332   */\n      swap1\n      pop\n        /* \"#utility.yul\":18269:18346   */\n    tag_351:\n        /* \"#utility.yul\":18372:18439   */\n      tag_352\n        /* \"#utility.yul\":18432:18438   */\n      dup6\n        /* \"#utility.yul\":18425:18430   */\n      dup3\n        /* \"#utility.yul\":18372:18439   */\n      tag_180\n      jump\t// in\n    tag_352:\n        /* \"#utility.yul\":18366:18370   */\n      dup7\n        /* \"#utility.yul\":18359:18440   */\n      sstore\n        /* \"#utility.yul\":18228:18450   */\n      pop\n        /* \"#utility.yul\":17563:18450   */\n      jump(tag_349)\n        /* \"#utility.yul\":17593:18211   */\n    tag_350:\n        /* \"#utility.yul\":17645:17649   */\n      0x1f\n        /* \"#utility.yul\":17641:17650   */\n      not\n        /* \"#utility.yul\":17633:17639   */\n      dup5\n        /* \"#utility.yul\":17629:17651   */\n      and\n        /* \"#utility.yul\":17679:17716   */\n      tag_353\n        /* \"#utility.yul\":17711:17715   */\n      dup7\n        /* \"#utility.yul\":17679:17716   */\n      tag_166\n      jump\t// in\n    tag_353:\n        /* \"#utility.yul\":17738:17739   */\n      0x00\n        /* \"#utility.yul\":17752:17960   */\n    tag_354:\n        /* \"#utility.yul\":17766:17773   */\n      dup3\n        /* \"#utility.yul\":17763:17764   */\n      dup2\n        /* \"#utility.yul\":17760:17774   */\n      lt\n        /* \"#utility.yul\":17752:17960   */\n      iszero\n      tag_356\n      jumpi\n        /* \"#utility.yul\":17845:17854   */\n      dup5\n        /* \"#utility.yul\":17840:17843   */\n      dup10\n        /* \"#utility.yul\":17836:17855   */\n      add\n        /* \"#utility.yul\":17830:17856   */\n      mload\n        /* \"#utility.yul\":17822:17828   */\n      dup3\n        /* \"#utility.yul\":17815:17857   */\n      sstore\n        /* \"#utility.yul\":17896:17897   */\n      0x01\n        /* \"#utility.yul\":17888:17894   */\n      dup3\n        /* \"#utility.yul\":17884:17898   */\n      add\n        /* \"#utility.yul\":17874:17898   */\n      swap2\n      pop\n        /* \"#utility.yul\":17943:17945   */\n      0x20\n        /* \"#utility.yul\":17932:17941   */\n      dup6\n        /* \"#utility.yul\":17928:17946   */\n      add\n        /* \"#utility.yul\":17915:17946   */\n      swap5\n      pop\n        /* \"#utility.yul\":17789:17793   */\n      0x20\n        /* \"#utility.yul\":17786:17787   */\n      dup2\n        /* \"#utility.yul\":17782:17794   */\n      add\n        /* \"#utility.yul\":17777:17794   */\n      swap1\n      pop\n        /* \"#utility.yul\":17752:17960   */\n      jump(tag_354)\n    tag_356:\n        /* \"#utility.yul\":17988:17994   */\n      dup7\n        /* \"#utility.yul\":17979:17986   */\n      dup4\n        /* \"#utility.yul\":17976:17995   */\n      lt\n        /* \"#utility.yul\":17973:18152   */\n      iszero\n      tag_357\n      jumpi\n        /* \"#utility.yul\":18046:18055   */\n      dup5\n        /* \"#utility.yul\":18041:18044   */\n      dup10\n        /* \"#utility.yul\":18037:18056   */\n      add\n        /* \"#utility.yul\":18031:18057   */\n      mload\n        /* \"#utility.yul\":18089:18137   */\n      tag_358\n        /* \"#utility.yul\":18131:18135   */\n      0x1f\n        /* \"#utility.yul\":18123:18129   */\n      dup10\n        /* \"#utility.yul\":18119:18136   */\n      and\n        /* \"#utility.yul\":18108:18117   */\n      dup3\n        /* \"#utility.yul\":18089:18137   */\n      tag_179\n      jump\t// in\n    tag_358:\n        /* \"#utility.yul\":18081:18087   */\n      dup4\n        /* \"#utility.yul\":18074:18138   */\n      sstore\n        /* \"#utility.yul\":17996:18152   */\n      pop\n        /* \"#utility.yul\":17973:18152   */\n    tag_357:\n        /* \"#utility.yul\":18198:18199   */\n      0x01\n        /* \"#utility.yul\":18194:18195   */\n      0x02\n        /* \"#utility.yul\":18186:18192   */\n      dup9\n        /* \"#utility.yul\":18182:18196   */\n      mul\n        /* \"#utility.yul\":18178:18200   */\n      add\n        /* \"#utility.yul\":18172:18176   */\n      dup9\n        /* \"#utility.yul\":18165:18201   */\n      sstore\n        /* \"#utility.yul\":17600:18211   */\n      pop\n      pop\n      pop\n        /* \"#utility.yul\":17563:18450   */\n    tag_349:\n      pop\n        /* \"#utility.yul\":17153:18456   */\n      pop\n      pop\n      pop\n        /* \"#utility.yul\":17061:18456   */\n      pop\n      pop\n      jump\t// out\n        /* \"#utility.yul\":18462:18610   */\n    tag_181:\n        /* \"#utility.yul\":18564:18575   */\n      0x00\n        /* \"#utility.yul\":18601:18604   */\n      dup2\n        /* \"#utility.yul\":18586:18604   */\n      swap1\n      pop\n        /* \"#utility.yul\":18462:18610   */\n      swap3\n      swap2\n      pop\n      pop\n      jump\t// out\n        /* \"#utility.yul\":18616:19006   */\n    tag_182:\n        /* \"#utility.yul\":18722:18725   */\n      0x00\n        /* \"#utility.yul\":18750:18789   */\n      tag_361\n        /* \"#utility.yul\":18783:18788   */\n      dup3\n        /* \"#utility.yul\":18750:18789   */\n      tag_143\n      jump\t// in\n    tag_361:\n        /* \"#utility.yul\":18805:18894   */\n      tag_362\n        /* \"#utility.yul\":18887:18893   */\n      dup2\n        /* \"#utility.yul\":18882:18885   */\n      dup6\n        /* \"#utility.yul\":18805:18894   */\n      tag_181\n      jump\t// in\n    tag_362:\n        /* \"#utility.yul\":18798:18894   */\n      swap4\n      pop\n        /* \"#utility.yul\":18903:18968   */\n      tag_363\n        /* \"#utility.yul\":18961:18967   */\n      dup2\n        /* \"#utility.yul\":18956:18959   */\n      dup6\n        /* \"#utility.yul\":18949:18953   */\n      0x20\n        /* \"#utility.yul\":18942:18947   */\n      dup7\n        /* \"#utility.yul\":18938:18954   */\n      add\n        /* \"#utility.yul\":18903:18968   */\n      tag_145\n      jump\t// in\n    tag_363:\n        /* \"#utility.yul\":18993:18999   */\n      dup1\n        /* \"#utility.yul\":18988:18991   */\n      dup5\n        /* \"#utility.yul\":18984:19000   */\n      add\n        /* \"#utility.yul\":18977:19000   */\n      swap2\n      pop\n        /* \"#utility.yul\":18726:19006   */\n      pop\n        /* \"#utility.yul\":18616:19006   */\n      swap3\n      swap2\n      pop\n      pop\n      jump\t// out\n        /* \"#utility.yul\":19012:19287   */\n    tag_104:\n        /* \"#utility.yul\":19144:19147   */\n      0x00\n        /* \"#utility.yul\":19166:19261   */\n      tag_365\n        /* \"#utility.yul\":19257:19260   */\n      dup3\n        /* \"#utility.yul\":19248:19254   */\n      dup5\n        /* \"#utility.yul\":19166:19261   */\n      tag_182\n      jump\t// in\n    tag_365:\n        /* \"#utility.yul\":19159:19261   */\n      swap2\n      pop\n        /* \"#utility.yul\":19278:19281   */\n      dup2\n        /* \"#utility.yul\":19271:19281   */\n      swap1\n      pop\n        /* \"#utility.yul\":19012:19287   */\n      swap3\n      swap2\n      pop\n      pop\n      jump\t// out\n\n    auxdata: 0xa2646970667358221220a7012c2b5a6606630cc50367b95de07b75f0aae3ea1001d65440d9e3564398eb64736f6c634300081e0033\n}\n",
				"bytecode": {
					"linkReferences": {},
					"object": "6080604052348015600e575f5ffd5b506111678061001c5f395ff3fe608060405234801561000f575f5ffd5b50600436106100cd575f3560e01c80634e8632711161008a5780638ec4dc95116100645780638ec4dc95146101fc57806390c3ee4d1461021a578063b55003fa1461024a578063ca052bf014610268576100cd565b80634e863271146101a85780636057361d146101c45780636f760f41146101e0576100cd565b80630756cd4e146100d1578063092a1820146100ed5780632d1804601461011e5780632e64cec11461014e5780633f17dd631461016c578063471f7cdf1461018a575b5f5ffd5b6100eb60048036038101906100e691906109f2565b610299565b005b61010760048036038101906101029190610a4c565b610319565b604051610115929190610ae6565b60405180910390f35b61013860048036038101906101339190610a4c565b6103ce565b6040516101459190610b14565b60405180910390f35b610156610469565b6040516101639190610b34565b60405180910390f35b610174610471565b6040516101819190610c99565b60405180910390f35b610192610566565b60405161019f9190610b34565b60405180910390f35b6101c260048036038101906101bd9190610cb9565b61056b565b005b6101de60048036038101906101d99190610a4c565b61057e565b005b6101fa60048036038101906101f591906109f2565b610587565b005b61020461060b565b6040516102119190610df5565b60405180910390f35b610234600480360381019061022f9190610cb9565b610700565b6040516102419190610b34565b60405180910390f35b61025261072d565b60405161025f9190610b14565b60405180910390f35b610282600480360381019061027d9190610a4c565b6107bd565b604051610290929190610ae6565b60405180910390f35b6005604051806040016040528084815260200183815250908060018154018082558091505060019003905f5260205f2090600202015f909190919091505f820151815f0190816102e99190611012565b506020820151816001015550508160045f8381526020019081526020015f2090816103149190611012565b505050565b60038181548110610328575f80fd5b905f5260205f2090600202015f91509050805f01805461034790610e42565b80601f016020809104026020016040519081016040528092919081815260200182805461037390610e42565b80156103be5780601f10610395576101008083540402835291602001916103be565b820191905f5260205f20905b8154815290600101906020018083116103a157829003601f168201915b5050505050908060010154905082565b6004602052805f5260405f205f9150905080546103ea90610e42565b80601f016020809104026020016040519081016040528092919081815260200182805461041690610e42565b80156104615780601f1061043857610100808354040283529160200191610461565b820191905f5260205f20905b81548152906001019060200180831161044457829003601f168201915b505050505081565b5f5f54905090565b60606005805480602002602001604051908101604052809291908181526020015f905b8282101561055d578382905f5260205f2090600202016040518060400160405290815f820180546104c490610e42565b80601f01602080910402602001604051908101604052809291908181526020018280546104f090610e42565b801561053b5780601f106105125761010080835404028352916020019161053b565b820191905f5260205f20905b81548152906001019060200180831161051e57829003601f168201915b5050505050815260200160018201548152505081526020019060010190610494565b50505050905090565b5f5481565b806002908161057a9190611012565b5050565b805f8190555050565b6003604051806040016040528084815260200183815250908060018154018082558091505060019003905f5260205f2090600202015f909190919091505f820151815f0190816105d79190611012565b50602082015181600101555050806001836040516105f5919061111b565b9081526020016040518091039020819055505050565b60606003805480602002602001604051908101604052809291908181526020015f905b828210156106f7578382905f5260205f2090600202016040518060400160405290815f8201805461065e90610e42565b80601f016020809104026020016040519081016040528092919081815260200182805461068a90610e42565b80156106d55780601f106106ac576101008083540402835291602001916106d5565b820191905f5260205f20905b8154815290600101906020018083116106b857829003601f168201915b505050505081526020016001820154815250508152602001906001019061062e565b50505050905090565b6001818051602081018201805184825260208301602085012081835280955050505050505f915090505481565b60606002805461073c90610e42565b80601f016020809104026020016040519081016040528092919081815260200182805461076890610e42565b80156107b35780601f1061078a576101008083540402835291602001916107b3565b820191905f5260205f20905b81548152906001019060200180831161079657829003601f168201915b5050505050905090565b600581815481106107cc575f80fd5b905f5260205f2090600202015f91509050805f0180546107eb90610e42565b80601f016020809104026020016040519081016040528092919081815260200182805461081790610e42565b80156108625780601f1061083957610100808354040283529160200191610862565b820191905f5260205f20905b81548152906001019060200180831161084557829003601f168201915b5050505050908060010154905082565b5f604051905090565b5f5ffd5b5f5ffd5b5f5ffd5b5f5ffd5b5f601f19601f8301169050919050565b7f4e487b71000000000000000000000000000000000000000000000000000000005f52604160045260245ffd5b6108d18261088b565b810181811067ffffffffffffffff821117156108f0576108ef61089b565b5b80604052505050565b5f610902610872565b905061090e82826108c8565b919050565b5f67ffffffffffffffff82111561092d5761092c61089b565b5b6109368261088b565b9050602081019050919050565b828183375f83830152505050565b5f61096361095e84610913565b6108f9565b90508281526020810184848401111561097f5761097e610887565b5b61098a848285610943565b509392505050565b5f82601f8301126109a6576109a5610883565b5b81356109b6848260208601610951565b91505092915050565b5f819050919050565b6109d1816109bf565b81146109db575f5ffd5b50565b5f813590506109ec816109c8565b92915050565b5f5f60408385031215610a0857610a0761087b565b5b5f83013567ffffffffffffffff811115610a2557610a2461087f565b5b610a3185828601610992565b9250506020610a42858286016109de565b9150509250929050565b5f60208284031215610a6157610a6061087b565b5b5f610a6e848285016109de565b91505092915050565b5f81519050919050565b5f82825260208201905092915050565b8281835e5f83830152505050565b5f610aa982610a77565b610ab38185610a81565b9350610ac3818560208601610a91565b610acc8161088b565b840191505092915050565b610ae0816109bf565b82525050565b5f6040820190508181035f830152610afe8185610a9f565b9050610b0d6020830184610ad7565b9392505050565b5f6020820190508181035f830152610b2c8184610a9f565b905092915050565b5f602082019050610b475f830184610ad7565b92915050565b5f81519050919050565b5f82825260208201905092915050565b5f819050602082019050919050565b5f82825260208201905092915050565b5f610b9082610a77565b610b9a8185610b76565b9350610baa818560208601610a91565b610bb38161088b565b840191505092915050565b610bc7816109bf565b82525050565b5f604083015f8301518482035f860152610be78282610b86565b9150506020830151610bfc6020860182610bbe565b508091505092915050565b5f610c128383610bcd565b905092915050565b5f602082019050919050565b5f610c3082610b4d565b610c3a8185610b57565b935083602082028501610c4c85610b67565b805f5b85811015610c875784840389528151610c688582610c07565b9450610c7383610c1a565b925060208a01995050600181019050610c4f565b50829750879550505050505092915050565b5f6020820190508181035f830152610cb18184610c26565b905092915050565b5f60208284031215610cce57610ccd61087b565b5b5f82013567ffffffffffffffff811115610ceb57610cea61087f565b5b610cf784828501610992565b91505092915050565b5f81519050919050565b5f82825260208201905092915050565b5f819050602082019050919050565b5f604083015f8301518482035f860152610d438282610b86565b9150506020830151610d586020860182610bbe565b508091505092915050565b5f610d6e8383610d29565b905092915050565b5f602082019050919050565b5f610d8c82610d00565b610d968185610d0a565b935083602082028501610da885610d1a565b805f5b85811015610de35784840389528151610dc48582610d63565b9450610dcf83610d76565b925060208a01995050600181019050610dab565b50829750879550505050505092915050565b5f6020820190508181035f830152610e0d8184610d82565b905092915050565b7f4e487b71000000000000000000000000000000000000000000000000000000005f52602260045260245ffd5b5f6002820490506001821680610e5957607f821691505b602082108103610e6c57610e6b610e15565b5b50919050565b5f819050815f5260205f209050919050565b5f6020601f8301049050919050565b5f82821b905092915050565b5f60088302610ece7fffffffffffffffffffffffffffffffffffffffffffffffffffffffffffffffff82610e93565b610ed88683610e93565b95508019841693508086168417925050509392505050565b5f819050919050565b5f610f13610f0e610f09846109bf565b610ef0565b6109bf565b9050919050565b5f819050919050565b610f2c83610ef9565b610f40610f3882610f1a565b848454610e9f565b825550505050565b5f5f905090565b610f57610f48565b610f62818484610f23565b505050565b5b81811015610f8557610f7a5f82610f4f565b600181019050610f68565b5050565b601f821115610fca57610f9b81610e72565b610fa484610e84565b81016020851015610fb3578190505b610fc7610fbf85610e84565b830182610f67565b50505b505050565b5f82821c905092915050565b5f610fea5f1984600802610fcf565b1980831691505092915050565b5f6110028383610fdb565b9150826002028217905092915050565b61101b82610a77565b67ffffffffffffffff8111156110345761103361089b565b5b61103e8254610e42565b611049828285610f89565b5f60209050601f83116001811461107a575f8415611068578287015190505b6110728582610ff7565b8655506110d9565b601f19841661108886610e72565b5f5b828110156110af5784890151825560018201915060208501945060208101905061108a565b868310156110cc57848901516110c8601f891682610fdb565b8355505b6001600288020188555050505b505050505050565b5f81905092915050565b5f6110f582610a77565b6110ff81856110e1565b935061110f818560208601610a91565b80840191505092915050565b5f61112682846110eb565b91508190509291505056fea2646970667358221220a7012c2b5a6606630cc50367b95de07b75f0aae3ea1001d65440d9e3564398eb64736f6c634300081e0033",
					"opcodes": "PUSH1 0x80 PUSH1 0x40 MSTORE CALLVALUE DUP1 ISZERO PUSH1 0xE JUMPI PUSH0 PUSH0 REVERT JUMPDEST POP PUSH2 0x1167 DUP1 PUSH2 0x1C PUSH0 CODECOPY PUSH0 RETURN INVALID PUSH1 0x80 PUSH1 0x40 MSTORE CALLVALUE DUP1 ISZERO PUSH2 0xF JUMPI PUSH0 PUSH0 REVERT JUMPDEST POP PUSH1 0x4 CALLDATASIZE LT PUSH2 0xCD JUMPI PUSH0 CALLDATALOAD PUSH1 0xE0 SHR DUP1 PUSH4 0x4E863271 GT PUSH2 0x8A JUMPI DUP1 PUSH4 0x8EC4DC95 GT PUSH2 0x64 JUMPI DUP1 PUSH4 0x8EC4DC95 EQ PUSH2 0x1FC JUMPI DUP1 PUSH4 0x90C3EE4D EQ PUSH2 0x21A JUMPI DUP1 PUSH4 0xB55003FA EQ PUSH2 0x24A JUMPI DUP1 PUSH4 0xCA052BF0 EQ PUSH2 0x268 JUMPI PUSH2 0xCD JUMP JUMPDEST DUP1 PUSH4 0x4E863271 EQ PUSH2 0x1A8 JUMPI DUP1 PUSH4 0x6057361D EQ PUSH2 0x1C4 JUMPI DUP1 PUSH4 0x6F760F41 EQ PUSH2 0x1E0 JUMPI PUSH2 0xCD JUMP JUMPDEST DUP1 PUSH4 0x756CD4E EQ PUSH2 0xD1 JUMPI DUP1 PUSH4 0x92A1820 EQ PUSH2 0xED JUMPI DUP1 PUSH4 0x2D180460 EQ PUSH2 0x11E JUMPI DUP1 PUSH4 0x2E64CEC1 EQ PUSH2 0x14E JUMPI DUP1 PUSH4 0x3F17DD63 EQ PUSH2 0x16C JUMPI DUP1 PUSH4 0x471F7CDF EQ PUSH2 0x18A JUMPI JUMPDEST PUSH0 PUSH0 REVERT JUMPDEST PUSH2 0xEB PUSH1 0x4 DUP1 CALLDATASIZE SUB DUP2 ADD SWAP1 PUSH2 0xE6 SWAP2 SWAP1 PUSH2 0x9F2 JUMP JUMPDEST PUSH2 0x299 JUMP JUMPDEST STOP JUMPDEST PUSH2 0x107 PUSH1 0x4 DUP1 CALLDATASIZE SUB DUP2 ADD SWAP1 PUSH2 0x102 SWAP2 SWAP1 PUSH2 0xA4C JUMP JUMPDEST PUSH2 0x319 JUMP JUMPDEST PUSH1 0x40 MLOAD PUSH2 0x115 SWAP3 SWAP2 SWAP1 PUSH2 0xAE6 JUMP JUMPDEST PUSH1 0x40 MLOAD DUP1 SWAP2 SUB SWAP1 RETURN JUMPDEST PUSH2 0x138 PUSH1 0x4 DUP1 CALLDATASIZE SUB DUP2 ADD SWAP1 PUSH2 0x133 SWAP2 SWAP1 PUSH2 0xA4C JUMP JUMPDEST PUSH2 0x3CE JUMP JUMPDEST PUSH1 0x40 MLOAD PUSH2 0x145 SWAP2 SWAP1 PUSH2 0xB14 JUMP JUMPDEST PUSH1 0x40 MLOAD DUP1 SWAP2 SUB SWAP1 RETURN JUMPDEST PUSH2 0x156 PUSH2 0x469 JUMP JUMPDEST PUSH1 0x40 MLOAD PUSH2 0x163 SWAP2 SWAP1 PUSH2 0xB34 JUMP JUMPDEST PUSH1 0x40 MLOAD DUP1 SWAP2 SUB SWAP1 RETURN JUMPDEST PUSH2 0x174 PUSH2 0x471 JUMP JUMPDEST PUSH1 0x40 MLOAD PUSH2 0x181 SWAP2 SWAP1 PUSH2 0xC99 JUMP JUMPDEST PUSH1 0x40 MLOAD DUP1 SWAP2 SUB SWAP1 RETURN JUMPDEST PUSH2 0x192 PUSH2 0x566 JUMP JUMPDEST PUSH1 0x40 MLOAD PUSH2 0x19F SWAP2 SWAP1 PUSH2 0xB34 JUMP JUMPDEST PUSH1 0x40 MLOAD DUP1 SWAP2 SUB SWAP1 RETURN JUMPDEST PUSH2 0x1C2 PUSH1 0x4 DUP1 CALLDATASIZE SUB DUP2 ADD SWAP1 PUSH2 0x1BD SWAP2 SWAP1 PUSH2 0xCB9 JUMP JUMPDEST PUSH2 0x56B JUMP JUMPDEST STOP JUMPDEST PUSH2 0x1DE PUSH1 0x4 DUP1 CALLDATASIZE SUB DUP2 ADD SWAP1 PUSH2 0x1D9 SWAP2 SWAP1 PUSH2 0xA4C JUMP JUMPDEST PUSH2 0x57E JUMP JUMPDEST STOP JUMPDEST PUSH2 0x1FA PUSH1 0x4 DUP1 CALLDATASIZE SUB DUP2 ADD SWAP1 PUSH2 0x1F5 SWAP2 SWAP1 PUSH2 0x9F2 JUMP JUMPDEST PUSH2 0x587 JUMP JUMPDEST STOP JUMPDEST PUSH2 0x204 PUSH2 0x60B JUMP JUMPDEST PUSH1 0x40 MLOAD PUSH2 0x211 SWAP2 SWAP1 PUSH2 0xDF5 JUMP JUMPDEST PUSH1 0x40 MLOAD DUP1 SWAP2 SUB SWAP1 RETURN JUMPDEST PUSH2 0x234 PUSH1 0x4 DUP1 CALLDATASIZE SUB DUP2 ADD SWAP1 PUSH2 0x22F SWAP2 SWAP1 PUSH2 0xCB9 JUMP JUMPDEST PUSH2 0x700 JUMP JUMPDEST PUSH1 0x40 MLOAD PUSH2 0x241 SWAP2 SWAP1 PUSH2 0xB34 JUMP JUMPDEST PUSH1 0x40 MLOAD DUP1 SWAP2 SUB SWAP1 RETURN JUMPDEST PUSH2 0x252 PUSH2 0x72D JUMP JUMPDEST PUSH1 0x40 MLOAD PUSH2 0x25F SWAP2 SWAP1 PUSH2 0xB14 JUMP JUMPDEST PUSH1 0x40 MLOAD DUP1 SWAP2 SUB SWAP1 RETURN JUMPDEST PUSH2 0x282 PUSH1 0x4 DUP1 CALLDATASIZE SUB DUP2 ADD SWAP1 PUSH2 0x27D SWAP2 SWAP1 PUSH2 0xA4C JUMP JUMPDEST PUSH2 0x7BD JUMP JUMPDEST PUSH1 0x40 MLOAD PUSH2 0x290 SWAP3 SWAP2 SWAP1 PUSH2 0xAE6 JUMP JUMPDEST PUSH1 0x40 MLOAD DUP1 SWAP2 SUB SWAP1 RETURN JUMPDEST PUSH1 0x5 PUSH1 0x40 MLOAD DUP1 PUSH1 0x40 ADD PUSH1 0x40 MSTORE DUP1 DUP5 DUP2 MSTORE PUSH1 0x20 ADD DUP4 DUP2 MSTORE POP SWAP1 DUP1 PUSH1 0x1 DUP2 SLOAD ADD DUP1 DUP3 SSTORE DUP1 SWAP2 POP POP PUSH1 0x1 SWAP1 SUB SWAP1 PUSH0 MSTORE PUSH1 0x20 PUSH0 KECCAK256 SWAP1 PUSH1 0x2 MUL ADD PUSH0 SWAP1 SWAP2 SWAP1 SWAP2 SWAP1 SWAP2 POP PUSH0 DUP3 ADD MLOAD DUP2 PUSH0 ADD SWAP1 DUP2 PUSH2 0x2E9 SWAP2 SWAP1 PUSH2 0x1012 JUMP JUMPDEST POP PUSH1 0x20 DUP3 ADD MLOAD DUP2 PUSH1 0x1 ADD SSTORE POP POP DUP2 PUSH1 0x4 PUSH0 DUP4 DUP2 MSTORE PUSH1 0x20 ADD SWAP1 DUP2 MSTORE PUSH1 0x20 ADD PUSH0 KECCAK256 SWAP1 DUP2 PUSH2 0x314 SWAP2 SWAP1 PUSH2 0x1012 JUMP JUMPDEST POP POP POP JUMP JUMPDEST PUSH1 0x3 DUP2 DUP2 SLOAD DUP2 LT PUSH2 0x328 JUMPI PUSH0 DUP1 REVERT JUMPDEST SWAP1 PUSH0 MSTORE PUSH1 0x20 PUSH0 KECCAK256 SWAP1 PUSH1 0x2 MUL ADD PUSH0 SWAP2 POP SWAP1 POP DUP1 PUSH0 ADD DUP1 SLOAD PUSH2 0x347 SWAP1 PUSH2 0xE42 JUMP JUMPDEST DUP1 PUSH1 0x1F ADD PUSH1 0x20 DUP1 SWAP2 DIV MUL PUSH1 0x20 ADD PUSH1 0x40 MLOAD SWAP1 DUP2 ADD PUSH1 0x40 MSTORE DUP1 SWAP3 SWAP2 SWAP1 DUP2 DUP2 MSTORE PUSH1 0x20 ADD DUP3 DUP1 SLOAD PUSH2 0x373 SWAP1 PUSH2 0xE42 JUMP JUMPDEST DUP1 ISZERO PUSH2 0x3BE JUMPI DUP1 PUSH1 0x1F LT PUSH2 0x395 JUMPI PUSH2 0x100 DUP1 DUP4 SLOAD DIV MUL DUP4 MSTORE SWAP2 PUSH1 0x20 ADD SWAP2 PUSH2 0x3BE JUMP JUMPDEST DUP3 ADD SWAP2 SWAP1 PUSH0 MSTORE PUSH1 0x20 PUSH0 KECCAK256 SWAP1 JUMPDEST DUP2 SLOAD DUP2 MSTORE SWAP1 PUSH1 0x1 ADD SWAP1 PUSH1 0x20 ADD DUP1 DUP4 GT PUSH2 0x3A1 JUMPI DUP3 SWAP1 SUB PUSH1 0x1F AND DUP3 ADD SWAP2 JUMPDEST POP POP POP POP POP SWAP1 DUP1 PUSH1 0x1 ADD SLOAD SWAP1 POP DUP3 JUMP JUMPDEST PUSH1 0x4 PUSH1 0x20 MSTORE DUP1 PUSH0 MSTORE PUSH1 0x40 PUSH0 KECCAK256 PUSH0 SWAP2 POP SWAP1 POP DUP1 SLOAD PUSH2 0x3EA SWAP1 PUSH2 0xE42 JUMP JUMPDEST DUP1 PUSH1 0x1F ADD PUSH1 0x20 DUP1 SWAP2 DIV MUL PUSH1 0x20 ADD PUSH1 0x40 MLOAD SWAP1 DUP2 ADD PUSH1 0x40 MSTORE DUP1 SWAP3 SWAP2 SWAP1 DUP2 DUP2 MSTORE PUSH1 0x20 ADD DUP3 DUP1 SLOAD PUSH2 0x416 SWAP1 PUSH2 0xE42 JUMP JUMPDEST DUP1 ISZERO PUSH2 0x461 JUMPI DUP1 PUSH1 0x1F LT PUSH2 0x438 JUMPI PUSH2 0x100 DUP1 DUP4 SLOAD DIV MUL DUP4 MSTORE SWAP2 PUSH1 0x20 ADD SWAP2 PUSH2 0x461 JUMP JUMPDEST DUP3 ADD SWAP2 SWAP1 PUSH0 MSTORE PUSH1 0x20 PUSH0 KECCAK256 SWAP1 JUMPDEST DUP2 SLOAD DUP2 MSTORE SWAP1 PUSH1 0x1 ADD SWAP1 PUSH1 0x20 ADD DUP1 DUP4 GT PUSH2 0x444 JUMPI DUP3 SWAP1 SUB PUSH1 0x1F AND DUP3 ADD SWAP2 JUMPDEST POP POP POP POP POP DUP2 JUMP JUMPDEST PUSH0 PUSH0 SLOAD SWAP1 POP SWAP1 JUMP JUMPDEST PUSH1 0x60 PUSH1 0x5 DUP1 SLOAD DUP1 PUSH1 0x20 MUL PUSH1 0x20 ADD PUSH1 0x40 MLOAD SWAP1 DUP2 ADD PUSH1 0x40 MSTORE DUP1 SWAP3 SWAP2 SWAP1 DUP2 DUP2 MSTORE PUSH1 0x20 ADD PUSH0 SWAP1 JUMPDEST DUP3 DUP3 LT ISZERO PUSH2 0x55D JUMPI DUP4 DUP3 SWAP1 PUSH0 MSTORE PUSH1 0x20 PUSH0 KECCAK256 SWAP1 PUSH1 0x2 MUL ADD PUSH1 0x40 MLOAD DUP1 PUSH1 0x40 ADD PUSH1 0x40 MSTORE SWAP1 DUP2 PUSH0 DUP3 ADD DUP1 SLOAD PUSH2 0x4C4 SWAP1 PUSH2 0xE42 JUMP JUMPDEST DUP1 PUSH1 0x1F ADD PUSH1 0x20 DUP1 SWAP2 DIV MUL PUSH1 0x20 ADD PUSH1 0x40 MLOAD SWAP1 DUP2 ADD PUSH1 0x40 MSTORE DUP1 SWAP3 SWAP2 SWAP1 DUP2 DUP2 MSTORE PUSH1 0x20 ADD DUP3 DUP1 SLOAD PUSH2 0x4F0 SWAP1 PUSH2 0xE42 JUMP JUMPDEST DUP1 ISZERO PUSH2 0x53B JUMPI DUP1 PUSH1 0x1F LT PUSH2 0x512 JUMPI PUSH2 0x100 DUP1 DUP4 SLOAD DIV MUL DUP4 MSTORE SWAP2 PUSH1 0x20 ADD SWAP2 PUSH2 0x53B JUMP JUMPDEST DUP3 ADD SWAP2 SWAP1 PUSH0 MSTORE PUSH1 0x20 PUSH0 KECCAK256 SWAP1 JUMPDEST DUP2 SLOAD DUP2 MSTORE SWAP1 PUSH1 0x1 ADD SWAP1 PUSH1 0x20 ADD DUP1 DUP4 GT PUSH2 0x51E JUMPI DUP3 SWAP1 SUB PUSH1 0x1F AND DUP3 ADD SWAP2 JUMPDEST POP POP POP POP POP DUP2 MSTORE PUSH1 0x20 ADD PUSH1 0x1 DUP3 ADD SLOAD DUP2 MSTORE POP POP DUP2 MSTORE PUSH1 0x20 ADD SWAP1 PUSH1 0x1 ADD SWAP1 PUSH2 0x494 JUMP JUMPDEST POP POP POP POP SWAP1 POP SWAP1 JUMP JUMPDEST PUSH0 SLOAD DUP2 JUMP JUMPDEST DUP1 PUSH1 0x2 SWAP1 DUP2 PUSH2 0x57A SWAP2 SWAP1 PUSH2 0x1012 JUMP JUMPDEST POP POP JUMP JUMPDEST DUP1 PUSH0 DUP2 SWAP1 SSTORE POP POP JUMP JUMPDEST PUSH1 0x3 PUSH1 0x40 MLOAD DUP1 PUSH1 0x40 ADD PUSH1 0x40 MSTORE DUP1 DUP5 DUP2 MSTORE PUSH1 0x20 ADD DUP4 DUP2 MSTORE POP SWAP1 DUP1 PUSH1 0x1 DUP2 SLOAD ADD DUP1 DUP3 SSTORE DUP1 SWAP2 POP POP PUSH1 0x1 SWAP1 SUB SWAP1 PUSH0 MSTORE PUSH1 0x20 PUSH0 KECCAK256 SWAP1 PUSH1 0x2 MUL ADD PUSH0 SWAP1 SWAP2 SWAP1 SWAP2 SWAP1 SWAP2 POP PUSH0 DUP3 ADD MLOAD DUP2 PUSH0 ADD SWAP1 DUP2 PUSH2 0x5D7 SWAP2 SWAP1 PUSH2 0x1012 JUMP JUMPDEST POP PUSH1 0x20 DUP3 ADD MLOAD DUP2 PUSH1 0x1 ADD SSTORE POP POP DUP1 PUSH1 0x1 DUP4 PUSH1 0x40 MLOAD PUSH2 0x5F5 SWAP2 SWAP1 PUSH2 0x111B JUMP JUMPDEST SWAP1 DUP2 MSTORE PUSH1 0x20 ADD PUSH1 0x40 MLOAD DUP1 SWAP2 SUB SWAP1 KECCAK256 DUP2 SWAP1 SSTORE POP POP POP JUMP JUMPDEST PUSH1 0x60 PUSH1 0x3 DUP1 SLOAD DUP1 PUSH1 0x20 MUL PUSH1 0x20 ADD PUSH1 0x40 MLOAD SWAP1 DUP2 ADD PUSH1 0x40 MSTORE DUP1 SWAP3 SWAP2 SWAP1 DUP2 DUP2 MSTORE PUSH1 0x20 ADD PUSH0 SWAP1 JUMPDEST DUP3 DUP3 LT ISZERO PUSH2 0x6F7 JUMPI DUP4 DUP3 SWAP1 PUSH0 MSTORE PUSH1 0x20 PUSH0 KECCAK256 SWAP1 PUSH1 0x2 MUL ADD PUSH1 0x40 MLOAD DUP1 PUSH1 0x40 ADD PUSH1 0x40 MSTORE SWAP1 DUP2 PUSH0 DUP3 ADD DUP1 SLOAD PUSH2 0x65E SWAP1 PUSH2 0xE42 JUMP JUMPDEST DUP1 PUSH1 0x1F ADD PUSH1 0x20 DUP1 SWAP2 DIV MUL PUSH1 0x20 ADD PUSH1 0x40 MLOAD SWAP1 DUP2 ADD PUSH1 0x40 MSTORE DUP1 SWAP3 SWAP2 SWAP1 DUP2 DUP2 MSTORE PUSH1 0x20 ADD DUP3 DUP1 SLOAD PUSH2 0x68A SWAP1 PUSH2 0xE42 JUMP JUMPDEST DUP1 ISZERO PUSH2 0x6D5 JUMPI DUP1 PUSH1 0x1F LT PUSH2 0x6AC JUMPI PUSH2 0x100 DUP1 DUP4 SLOAD DIV MUL DUP4 MSTORE SWAP2 PUSH1 0x20 ADD SWAP2 PUSH2 0x6D5 JUMP JUMPDEST DUP3 ADD SWAP2 SWAP1 PUSH0 MSTORE PUSH1 0x20 PUSH0 KECCAK256 SWAP1 JUMPDEST DUP2 SLOAD DUP2 MSTORE SWAP1 PUSH1 0x1 ADD SWAP1 PUSH1 0x20 ADD DUP1 DUP4 GT PUSH2 0x6B8 JUMPI DUP3 SWAP1 SUB PUSH1 0x1F AND DUP3 ADD SWAP2 JUMPDEST POP POP POP POP POP DUP2 MSTORE PUSH1 0x20 ADD PUSH1 0x1 DUP3 ADD SLOAD DUP2 MSTORE POP POP DUP2 MSTORE PUSH1 0x20 ADD SWAP1 PUSH1 0x1 ADD SWAP1 PUSH2 0x62E JUMP JUMPDEST POP POP POP POP SWAP1 POP SWAP1 JUMP JUMPDEST PUSH1 0x1 DUP2 DUP1 MLOAD PUSH1 0x20 DUP2 ADD DUP3 ADD DUP1 MLOAD DUP5 DUP3 MSTORE PUSH1 0x20 DUP4 ADD PUSH1 0x20 DUP6 ADD KECCAK256 DUP2 DUP4 MSTORE DUP1 SWAP6 POP POP POP POP POP POP PUSH0 SWAP2 POP SWAP1 POP SLOAD DUP2 JUMP JUMPDEST PUSH1 0x60 PUSH1 0x2 DUP1 SLOAD PUSH2 0x73C SWAP1 PUSH2 0xE42 JUMP JUMPDEST DUP1 PUSH1 0x1F ADD PUSH1 0x20 DUP1 SWAP2 DIV MUL PUSH1 0x20 ADD PUSH1 0x40 MLOAD SWAP1 DUP2 ADD PUSH1 0x40 MSTORE DUP1 SWAP3 SWAP2 SWAP1 DUP2 DUP2 MSTORE PUSH1 0x20 ADD DUP3 DUP1 SLOAD PUSH2 0x768 SWAP1 PUSH2 0xE42 JUMP JUMPDEST DUP1 ISZERO PUSH2 0x7B3 JUMPI DUP1 PUSH1 0x1F LT PUSH2 0x78A JUMPI PUSH2 0x100 DUP1 DUP4 SLOAD DIV MUL DUP4 MSTORE SWAP2 PUSH1 0x20 ADD SWAP2 PUSH2 0x7B3 JUMP JUMPDEST DUP3 ADD SWAP2 SWAP1 PUSH0 MSTORE PUSH1 0x20 PUSH0 KECCAK256 SWAP1 JUMPDEST DUP2 SLOAD DUP2 MSTORE SWAP1 PUSH1 0x1 ADD SWAP1 PUSH1 0x20 ADD DUP1 DUP4 GT PUSH2 0x796 JUMPI DUP3 SWAP1 SUB PUSH1 0x1F AND DUP3 ADD SWAP2 JUMPDEST POP POP POP POP POP SWAP1 POP SWAP1 JUMP JUMPDEST PUSH1 0x5 DUP2 DUP2 SLOAD DUP2 LT PUSH2 0x7CC JUMPI PUSH0 DUP1 REVERT JUMPDEST SWAP1 PUSH0 MSTORE PUSH1 0x20 PUSH0 KECCAK256 SWAP1 PUSH1 0x2 MUL ADD PUSH0 SWAP2 POP SWAP1 POP DUP1 PUSH0 ADD DUP1 SLOAD PUSH2 0x7EB SWAP1 PUSH2 0xE42 JUMP JUMPDEST DUP1 PUSH1 0x1F ADD PUSH1 0x20 DUP1 SWAP2 DIV MUL PUSH1 0x20 ADD PUSH1 0x40 MLOAD SWAP1 DUP2 ADD PUSH1 0x40 MSTORE DUP1 SWAP3 SWAP2 SWAP1 DUP2 DUP2 MSTORE PUSH1 0x20 ADD DUP3 DUP1 SLOAD PUSH2 0x817 SWAP1 PUSH2 0xE42 JUMP JUMPDEST DUP1 ISZERO PUSH2 0x862 JUMPI DUP1 PUSH1 0x1F LT PUSH2 0x839 JUMPI PUSH2 0x100 DUP1 DUP4 SLOAD DIV MUL DUP4 MSTORE SWAP2 PUSH1 0x20 ADD SWAP2 PUSH2 0x862 JUMP JUMPDEST DUP3 ADD SWAP2 SWAP1 PUSH0 MSTORE PUSH1 0x20 PUSH0 KECCAK256 SWAP1 JUMPDEST DUP2 SLOAD DUP2 MSTORE SWAP1 PUSH1 0x1 ADD SWAP1 PUSH1 0x20 ADD DUP1 DUP4 GT PUSH2 0x845 JUMPI DUP3 SWAP1 SUB PUSH1 0x1F AND DUP3 ADD SWAP2 JUMPDEST POP POP POP POP POP SWAP1 DUP1 PUSH1 0x1 ADD SLOAD SWAP1 POP DUP3 JUMP JUMPDEST PUSH0 PUSH1 0x40 MLOAD SWAP1 POP SWAP1 JUMP JUMPDEST PUSH0 PUSH0 REVERT JUMPDEST PUSH0 PUSH0 REVERT JUMPDEST PUSH0 PUSH0 REVERT JUMPDEST PUSH0 PUSH0 REVERT JUMPDEST PUSH0 PUSH1 0x1F NOT PUSH1 0x1F DUP4 ADD AND SWAP1 POP SWAP2 SWAP1 POP JUMP JUMPDEST PUSH32 0x4E487B7100000000000000000000000000000000000000000000000000000000 PUSH0 MSTORE PUSH1 0x41 PUSH1 0x4 MSTORE PUSH1 0x24 PUSH0 REVERT JUMPDEST PUSH2 0x8D1 DUP3 PUSH2 0x88B JUMP JUMPDEST DUP2 ADD DUP2 DUP2 LT PUSH8 0xFFFFFFFFFFFFFFFF DUP3 GT OR ISZERO PUSH2 0x8F0 JUMPI PUSH2 0x8EF PUSH2 0x89B JUMP JUMPDEST JUMPDEST DUP1 PUSH1 0x40 MSTORE POP POP POP JUMP JUMPDEST PUSH0 PUSH2 0x902 PUSH2 0x872 JUMP JUMPDEST SWAP1 POP PUSH2 0x90E DUP3 DUP3 PUSH2 0x8C8 JUMP JUMPDEST SWAP2 SWAP1 POP JUMP JUMPDEST PUSH0 PUSH8 0xFFFFFFFFFFFFFFFF DUP3 GT ISZERO PUSH2 0x92D JUMPI PUSH2 0x92C PUSH2 0x89B JUMP JUMPDEST JUMPDEST PUSH2 0x936 DUP3 PUSH2 0x88B JUMP JUMPDEST SWAP1 POP PUSH1 0x20 DUP2 ADD SWAP1 POP SWAP2 SWAP1 POP JUMP JUMPDEST DUP3 DUP2 DUP4 CALLDATACOPY PUSH0 DUP4 DUP4 ADD MSTORE POP POP POP JUMP JUMPDEST PUSH0 PUSH2 0x963 PUSH2 0x95E DUP5 PUSH2 0x913 JUMP JUMPDEST PUSH2 0x8F9 JUMP JUMPDEST SWAP1 POP DUP3 DUP2 MSTORE PUSH1 0x20 DUP2 ADD DUP5 DUP5 DUP5 ADD GT ISZERO PUSH2 0x97F JUMPI PUSH2 0x97E PUSH2 0x887 JUMP JUMPDEST JUMPDEST PUSH2 0x98A DUP5 DUP3 DUP6 PUSH2 0x943 JUMP JUMPDEST POP SWAP4 SWAP3 POP POP POP JUMP JUMPDEST PUSH0 DUP3 PUSH1 0x1F DUP4 ADD SLT PUSH2 0x9A6 JUMPI PUSH2 0x9A5 PUSH2 0x883 JUMP JUMPDEST JUMPDEST DUP2 CALLDATALOAD PUSH2 0x9B6 DUP5 DUP3 PUSH1 0x20 DUP7 ADD PUSH2 0x951 JUMP JUMPDEST SWAP2 POP POP SWAP3 SWAP2 POP POP JUMP JUMPDEST PUSH0 DUP2 SWAP1 POP SWAP2 SWAP1 POP JUMP JUMPDEST PUSH2 0x9D1 DUP2 PUSH2 0x9BF JUMP JUMPDEST DUP2 EQ PUSH2 0x9DB JUMPI PUSH0 PUSH0 REVERT JUMPDEST POP JUMP JUMPDEST PUSH0 DUP2 CALLDATALOAD SWAP1 POP PUSH2 0x9EC DUP2 PUSH2 0x9C8 JUMP JUMPDEST SWAP3 SWAP2 POP POP JUMP JUMPDEST PUSH0 PUSH0 PUSH1 0x40 DUP4 DUP6 SUB SLT ISZERO PUSH2 0xA08 JUMPI PUSH2 0xA07 PUSH2 0x87B JUMP JUMPDEST JUMPDEST PUSH0 DUP4 ADD CALLDATALOAD PUSH8 0xFFFFFFFFFFFFFFFF DUP2 GT ISZERO PUSH2 0xA25 JUMPI PUSH2 0xA24 PUSH2 0x87F JUMP JUMPDEST JUMPDEST PUSH2 0xA31 DUP6 DUP3 DUP7 ADD PUSH2 0x992 JUMP JUMPDEST SWAP3 POP POP PUSH1 0x20 PUSH2 0xA42 DUP6 DUP3 DUP7 ADD PUSH2 0x9DE JUMP JUMPDEST SWAP2 POP POP SWAP3 POP SWAP3 SWAP1 POP JUMP JUMPDEST PUSH0 PUSH1 0x20 DUP3 DUP5 SUB SLT ISZERO PUSH2 0xA61 JUMPI PUSH2 0xA60 PUSH2 0x87B JUMP JUMPDEST JUMPDEST PUSH0 PUSH2 0xA6E DUP5 DUP3 DUP6 ADD PUSH2 0x9DE JUMP JUMPDEST SWAP2 POP POP SWAP3 SWAP2 POP POP JUMP JUMPDEST PUSH0 DUP2 MLOAD SWAP1 POP SWAP2 SWAP1 POP JUMP JUMPDEST PUSH0 DUP3 DUP3 MSTORE PUSH1 0x20 DUP3 ADD SWAP1 POP SWAP3 SWAP2 POP POP JUMP JUMPDEST DUP3 DUP2 DUP4 MCOPY PUSH0 DUP4 DUP4 ADD MSTORE POP POP POP JUMP JUMPDEST PUSH0 PUSH2 0xAA9 DUP3 PUSH2 0xA77 JUMP JUMPDEST PUSH2 0xAB3 DUP2 DUP6 PUSH2 0xA81 JUMP JUMPDEST SWAP4 POP PUSH2 0xAC3 DUP2 DUP6 PUSH1 0x20 DUP7 ADD PUSH2 0xA91 JUMP JUMPDEST PUSH2 0xACC DUP2 PUSH2 0x88B JUMP JUMPDEST DUP5 ADD SWAP2 POP POP SWAP3 SWAP2 POP POP JUMP JUMPDEST PUSH2 0xAE0 DUP2 PUSH2 0x9BF JUMP JUMPDEST DUP3 MSTORE POP POP JUMP JUMPDEST PUSH0 PUSH1 0x40 DUP3 ADD SWAP1 POP DUP2 DUP2 SUB PUSH0 DUP4 ADD MSTORE PUSH2 0xAFE DUP2 DUP6 PUSH2 0xA9F JUMP JUMPDEST SWAP1 POP PUSH2 0xB0D PUSH1 0x20 DUP4 ADD DUP5 PUSH2 0xAD7 JUMP JUMPDEST SWAP4 SWAP3 POP POP POP JUMP JUMPDEST PUSH0 PUSH1 0x20 DUP3 ADD SWAP1 POP DUP2 DUP2 SUB PUSH0 DUP4 ADD MSTORE PUSH2 0xB2C DUP2 DUP5 PUSH2 0xA9F JUMP JUMPDEST SWAP1 POP SWAP3 SWAP2 POP POP JUMP JUMPDEST PUSH0 PUSH1 0x20 DUP3 ADD SWAP1 POP PUSH2 0xB47 PUSH0 DUP4 ADD DUP5 PUSH2 0xAD7 JUMP JUMPDEST SWAP3 SWAP2 POP POP JUMP JUMPDEST PUSH0 DUP2 MLOAD SWAP1 POP SWAP2 SWAP1 POP JUMP JUMPDEST PUSH0 DUP3 DUP3 MSTORE PUSH1 0x20 DUP3 ADD SWAP1 POP SWAP3 SWAP2 POP POP JUMP JUMPDEST PUSH0 DUP2 SWAP1 POP PUSH1 0x20 DUP3 ADD SWAP1 POP SWAP2 SWAP1 POP JUMP JUMPDEST PUSH0 DUP3 DUP3 MSTORE PUSH1 0x20 DUP3 ADD SWAP1 POP SWAP3 SWAP2 POP POP JUMP JUMPDEST PUSH0 PUSH2 0xB90 DUP3 PUSH2 0xA77 JUMP JUMPDEST PUSH2 0xB9A DUP2 DUP6 PUSH2 0xB76 JUMP JUMPDEST SWAP4 POP PUSH2 0xBAA DUP2 DUP6 PUSH1 0x20 DUP7 ADD PUSH2 0xA91 JUMP JUMPDEST PUSH2 0xBB3 DUP2 PUSH2 0x88B JUMP JUMPDEST DUP5 ADD SWAP2 POP POP SWAP3 SWAP2 POP POP JUMP JUMPDEST PUSH2 0xBC7 DUP2 PUSH2 0x9BF JUMP JUMPDEST DUP3 MSTORE POP POP JUMP JUMPDEST PUSH0 PUSH1 0x40 DUP4 ADD PUSH0 DUP4 ADD MLOAD DUP5 DUP3 SUB PUSH0 DUP7 ADD MSTORE PUSH2 0xBE7 DUP3 DUP3 PUSH2 0xB86 JUMP JUMPDEST SWAP2 POP POP PUSH1 0x20 DUP4 ADD MLOAD PUSH2 0xBFC PUSH1 0x20 DUP7 ADD DUP3 PUSH2 0xBBE JUMP JUMPDEST POP DUP1 SWAP2 POP POP SWAP3 SWAP2 POP POP JUMP JUMPDEST PUSH0 PUSH2 0xC12 DUP4 DUP4 PUSH2 0xBCD JUMP JUMPDEST SWAP1 POP SWAP3 SWAP2 POP POP JUMP JUMPDEST PUSH0 PUSH1 0x20 DUP3 ADD SWAP1 POP SWAP2 SWAP1 POP JUMP JUMPDEST PUSH0 PUSH2 0xC30 DUP3 PUSH2 0xB4D JUMP JUMPDEST PUSH2 0xC3A DUP2 DUP6 PUSH2 0xB57 JUMP JUMPDEST SWAP4 POP DUP4 PUSH1 0x20 DUP3 MUL DUP6 ADD PUSH2 0xC4C DUP6 PUSH2 0xB67 JUMP JUMPDEST DUP1 PUSH0 JUMPDEST DUP6 DUP2 LT ISZERO PUSH2 0xC87 JUMPI DUP5 DUP5 SUB DUP10 MSTORE DUP2 MLOAD PUSH2 0xC68 DUP6 DUP3 PUSH2 0xC07 JUMP JUMPDEST SWAP5 POP PUSH2 0xC73 DUP4 PUSH2 0xC1A JUMP JUMPDEST SWAP3 POP PUSH1 0x20 DUP11 ADD SWAP10 POP POP PUSH1 0x1 DUP2 ADD SWAP1 POP PUSH2 0xC4F JUMP JUMPDEST POP DUP3 SWAP8 POP DUP8 SWAP6 POP POP POP POP POP POP SWAP3 SWAP2 POP POP JUMP JUMPDEST PUSH0 PUSH1 0x20 DUP3 ADD SWAP1 POP DUP2 DUP2 SUB PUSH0 DUP4 ADD MSTORE PUSH2 0xCB1 DUP2 DUP5 PUSH2 0xC26 JUMP JUMPDEST SWAP1 POP SWAP3 SWAP2 POP POP JUMP JUMPDEST PUSH0 PUSH1 0x20 DUP3 DUP5 SUB SLT ISZERO PUSH2 0xCCE JUMPI PUSH2 0xCCD PUSH2 0x87B JUMP JUMPDEST JUMPDEST PUSH0 DUP3 ADD CALLDATALOAD PUSH8 0xFFFFFFFFFFFFFFFF DUP2 GT ISZERO PUSH2 0xCEB JUMPI PUSH2 0xCEA PUSH2 0x87F JUMP JUMPDEST JUMPDEST PUSH2 0xCF7 DUP5 DUP3 DUP6 ADD PUSH2 0x992 JUMP JUMPDEST SWAP2 POP POP SWAP3 SWAP2 POP POP JUMP JUMPDEST PUSH0 DUP2 MLOAD SWAP1 POP SWAP2 SWAP1 POP JUMP JUMPDEST PUSH0 DUP3 DUP3 MSTORE PUSH1 0x20 DUP3 ADD SWAP1 POP SWAP3 SWAP2 POP POP JUMP JUMPDEST PUSH0 DUP2 SWAP1 POP PUSH1 0x20 DUP3 ADD SWAP1 POP SWAP2 SWAP1 POP JUMP JUMPDEST PUSH0 PUSH1 0x40 DUP4 ADD PUSH0 DUP4 ADD MLOAD DUP5 DUP3 SUB PUSH0 DUP7 ADD MSTORE PUSH2 0xD43 DUP3 DUP3 PUSH2 0xB86 JUMP JUMPDEST SWAP2 POP POP PUSH1 0x20 DUP4 ADD MLOAD PUSH2 0xD58 PUSH1 0x20 DUP7 ADD DUP3 PUSH2 0xBBE JUMP JUMPDEST POP DUP1 SWAP2 POP POP SWAP3 SWAP2 POP POP JUMP JUMPDEST PUSH0 PUSH2 0xD6E DUP4 DUP4 PUSH2 0xD29 JUMP JUMPDEST SWAP1 POP SWAP3 SWAP2 POP POP JUMP JUMPDEST PUSH0 PUSH1 0x20 DUP3 ADD SWAP1 POP SWAP2 SWAP1 POP JUMP JUMPDEST PUSH0 PUSH2 0xD8C DUP3 PUSH2 0xD00 JUMP JUMPDEST PUSH2 0xD96 DUP2 DUP6 PUSH2 0xD0A JUMP JUMPDEST SWAP4 POP DUP4 PUSH1 0x20 DUP3 MUL DUP6 ADD PUSH2 0xDA8 DUP6 PUSH2 0xD1A JUMP JUMPDEST DUP1 PUSH0 JUMPDEST DUP6 DUP2 LT ISZERO PUSH2 0xDE3 JUMPI DUP5 DUP5 SUB DUP10 MSTORE DUP2 MLOAD PUSH2 0xDC4 DUP6 DUP3 PUSH2 0xD63 JUMP JUMPDEST SWAP5 POP PUSH2 0xDCF DUP4 PUSH2 0xD76 JUMP JUMPDEST SWAP3 POP PUSH1 0x20 DUP11 ADD SWAP10 POP POP PUSH1 0x1 DUP2 ADD SWAP1 POP PUSH2 0xDAB JUMP JUMPDEST POP DUP3 SWAP8 POP DUP8 SWAP6 POP POP POP POP POP POP SWAP3 SWAP2 POP POP JUMP JUMPDEST PUSH0 PUSH1 0x20 DUP3 ADD SWAP1 POP DUP2 DUP2 SUB PUSH0 DUP4 ADD MSTORE PUSH2 0xE0D DUP2 DUP5 PUSH2 0xD82 JUMP JUMPDEST SWAP1 POP SWAP3 SWAP2 POP POP JUMP JUMPDEST PUSH32 0x4E487B7100000000000000000000000000000000000000000000000000000000 PUSH0 MSTORE PUSH1 0x22 PUSH1 0x4 MSTORE PUSH1 0x24 PUSH0 REVERT JUMPDEST PUSH0 PUSH1 0x2 DUP3 DIV SWAP1 POP PUSH1 0x1 DUP3 AND DUP1 PUSH2 0xE59 JUMPI PUSH1 0x7F DUP3 AND SWAP2 POP JUMPDEST PUSH1 0x20 DUP3 LT DUP2 SUB PUSH2 0xE6C JUMPI PUSH2 0xE6B PUSH2 0xE15 JUMP JUMPDEST JUMPDEST POP SWAP2 SWAP1 POP JUMP JUMPDEST PUSH0 DUP2 SWAP1 POP DUP2 PUSH0 MSTORE PUSH1 0x20 PUSH0 KECCAK256 SWAP1 POP SWAP2 SWAP1 POP JUMP JUMPDEST PUSH0 PUSH1 0x20 PUSH1 0x1F DUP4 ADD DIV SWAP1 POP SWAP2 SWAP1 POP JUMP JUMPDEST PUSH0 DUP3 DUP3 SHL SWAP1 POP SWAP3 SWAP2 POP POP JUMP JUMPDEST PUSH0 PUSH1 0x8 DUP4 MUL PUSH2 0xECE PUSH32 0xFFFFFFFFFFFFFFFFFFFFFFFFFFFFFFFFFFFFFFFFFFFFFFFFFFFFFFFFFFFFFFFF DUP3 PUSH2 0xE93 JUMP JUMPDEST PUSH2 0xED8 DUP7 DUP4 PUSH2 0xE93 JUMP JUMPDEST SWAP6 POP DUP1 NOT DUP5 AND SWAP4 POP DUP1 DUP7 AND DUP5 OR SWAP3 POP POP POP SWAP4 SWAP3 POP POP POP JUMP JUMPDEST PUSH0 DUP2 SWAP1 POP SWAP2 SWAP1 POP JUMP JUMPDEST PUSH0 PUSH2 0xF13 PUSH2 0xF0E PUSH2 0xF09 DUP5 PUSH2 0x9BF JUMP JUMPDEST PUSH2 0xEF0 JUMP JUMPDEST PUSH2 0x9BF JUMP JUMPDEST SWAP1 POP SWAP2 SWAP1 POP JUMP JUMPDEST PUSH0 DUP2 SWAP1 POP SWAP2 SWAP1 POP JUMP JUMPDEST PUSH2 0xF2C DUP4 PUSH2 0xEF9 JUMP JUMPDEST PUSH2 0xF40 PUSH2 0xF38 DUP3 PUSH2 0xF1A JUMP JUMPDEST DUP5 DUP5 SLOAD PUSH2 0xE9F JUMP JUMPDEST DUP3 SSTORE POP POP POP POP JUMP JUMPDEST PUSH0 PUSH0 SWAP1 POP SWAP1 JUMP JUMPDEST PUSH2 0xF57 PUSH2 0xF48 JUMP JUMPDEST PUSH2 0xF62 DUP2 DUP5 DUP5 PUSH2 0xF23 JUMP JUMPDEST POP POP POP JUMP JUMPDEST JUMPDEST DUP2 DUP2 LT ISZERO PUSH2 0xF85 JUMPI PUSH2 0xF7A PUSH0 DUP3 PUSH2 0xF4F JUMP JUMPDEST PUSH1 0x1 DUP2 ADD SWAP1 POP PUSH2 0xF68 JUMP JUMPDEST POP POP JUMP JUMPDEST PUSH1 0x1F DUP3 GT ISZERO PUSH2 0xFCA JUMPI PUSH2 0xF9B DUP2 PUSH2 0xE72 JUMP JUMPDEST PUSH2 0xFA4 DUP5 PUSH2 0xE84 JUMP JUMPDEST DUP2 ADD PUSH1 0x20 DUP6 LT ISZERO PUSH2 0xFB3 JUMPI DUP2 SWAP1 POP JUMPDEST PUSH2 0xFC7 PUSH2 0xFBF DUP6 PUSH2 0xE84 JUMP JUMPDEST DUP4 ADD DUP3 PUSH2 0xF67 JUMP JUMPDEST POP POP JUMPDEST POP POP POP JUMP JUMPDEST PUSH0 DUP3 DUP3 SHR SWAP1 POP SWAP3 SWAP2 POP POP JUMP JUMPDEST PUSH0 PUSH2 0xFEA PUSH0 NOT DUP5 PUSH1 0x8 MUL PUSH2 0xFCF JUMP JUMPDEST NOT DUP1 DUP4 AND SWAP2 POP POP SWAP3 SWAP2 POP POP JUMP JUMPDEST PUSH0 PUSH2 0x1002 DUP4 DUP4 PUSH2 0xFDB JUMP JUMPDEST SWAP2 POP DUP3 PUSH1 0x2 MUL DUP3 OR SWAP1 POP SWAP3 SWAP2 POP POP JUMP JUMPDEST PUSH2 0x101B DUP3 PUSH2 0xA77 JUMP JUMPDEST PUSH8 0xFFFFFFFFFFFFFFFF DUP2 GT ISZERO PUSH2 0x1034 JUMPI PUSH2 0x1033 PUSH2 0x89B JUMP JUMPDEST JUMPDEST PUSH2 0x103E DUP3 SLOAD PUSH2 0xE42 JUMP JUMPDEST PUSH2 0x1049 DUP3 DUP3 DUP6 PUSH2 0xF89 JUMP JUMPDEST PUSH0 PUSH1 0x20 SWAP1 POP PUSH1 0x1F DUP4 GT PUSH1 0x1 DUP2 EQ PUSH2 0x107A JUMPI PUSH0 DUP5 ISZERO PUSH2 0x1068 JUMPI DUP3 DUP8 ADD MLOAD SWAP1 POP JUMPDEST PUSH2 0x1072 DUP6 DUP3 PUSH2 0xFF7 JUMP JUMPDEST DUP7 SSTORE POP PUSH2 0x10D9 JUMP JUMPDEST PUSH1 0x1F NOT DUP5 AND PUSH2 0x1088 DUP7 PUSH2 0xE72 JUMP JUMPDEST PUSH0 JUMPDEST DUP3 DUP2 LT ISZERO PUSH2 0x10AF JUMPI DUP5 DUP10 ADD MLOAD DUP3 SSTORE PUSH1 0x1 DUP3 ADD SWAP2 POP PUSH1 0x20 DUP6 ADD SWAP5 POP PUSH1 0x20 DUP2 ADD SWAP1 POP PUSH2 0x108A JUMP JUMPDEST DUP7 DUP4 LT ISZERO PUSH2 0x10CC JUMPI DUP5 DUP10 ADD MLOAD PUSH2 0x10C8 PUSH1 0x1F DUP10 AND DUP3 PUSH2 0xFDB JUMP JUMPDEST DUP4 SSTORE POP JUMPDEST PUSH1 0x1 PUSH1 0x2 DUP9 MUL ADD DUP9 SSTORE POP POP POP JUMPDEST POP POP POP POP POP POP JUMP JUMPDEST PUSH0 DUP2 SWAP1 POP SWAP3 SWAP2 POP POP JUMP JUMPDEST PUSH0 PUSH2 0x10F5 DUP3 PUSH2 0xA77 JUMP JUMPDEST PUSH2 0x10FF DUP2 DUP6 PUSH2 0x10E1 JUMP JUMPDEST SWAP4 POP PUSH2 0x110F DUP2 DUP6 PUSH1 0x20 DUP7 ADD PUSH2 0xA91 JUMP JUMPDEST DUP1 DUP5 ADD SWAP2 POP POP SWAP3 SWAP2 POP POP JUMP JUMPDEST PUSH0 PUSH2 0x1126 DUP3 DUP5 PUSH2 0x10EB JUMP JUMPDEST SWAP2 POP DUP2 SWAP1 POP SWAP3 SWAP2 POP POP JUMP INVALID LOG2 PUSH5 0x6970667358 0x22 SLT KECCAK256 0xA7 ADD 0x2C 0x2B GAS PUSH7 0x6630CC50367B9 TSTORE RJUMP 0x7B75 CREATE 0xAA CALLF 0xEA10 ADD 0xD6 SLOAD BLOCKHASH 0xD9 CALLF 0x5643 SWAP9 0xEB PUSH5 0x736F6C6343 STOP ADDMOD 0x1E STOP CALLER "
				},
				"gasEstimates": {
					"creation": {
						"codeDepositCost": "891000",
						"executionCost": "927",
						"totalCost": "891927"
					},
					"external": {
						"addPerson(string,uint256)": "infinite",
						"addPersonal(string,uint256)": "infinite",
						"favNumberToName(uint256)": "infinite",
						"favoriteNumber()": "2535",
						"getPerson()": "infinite",
						"getPersonName()": "infinite",
						"getPersonal()": "infinite",
						"nameToAge(string)": "infinite",
						"person(uint256)": "infinite",
						"personal(uint256)": "infinite",
						"retrieve()": "2498",
						"setPersonName(string)": "infinite",
						"store(uint256)": "22559"
					}
				},
				"methodIdentifiers": {
					"addPerson(string,uint256)": "6f760f41",
					"addPersonal(string,uint256)": "0756cd4e",
					"favNumberToName(uint256)": "2d180460",
					"favoriteNumber()": "471f7cdf",
					"getPerson()": "8ec4dc95",
					"getPersonName()": "b55003fa",
					"getPersonal()": "3f17dd63",
					"nameToAge(string)": "90c3ee4d",
					"person(uint256)": "092a1820",
					"personal(uint256)": "ca052bf0",
					"retrieve()": "2e64cec1",
					"setPersonName(string)": "4e863271",
					"store(uint256)": "6057361d"
				}
			},
			"storageLayout": {
				"storage": [
					{
						"astId": 3,
						"contract": "Contract/SimpleStorage.sol:SimpleStorage",
						"label": "favoriteNumber",
						"offset": 0,
						"slot": "0",
						"type": "t_uint256"
					},
					{
						"astId": 25,
						"contract": "Contract/SimpleStorage.sol:SimpleStorage",
						"label": "nameToAge",
						"offset": 0,
						"slot": "1",
						"type": "t_mapping(t_string_memory_ptr,t_uint256)"
					},
					{
						"astId": 27,
						"contract": "Contract/SimpleStorage.sol:SimpleStorage",
						"label": "personName",
						"offset": 0,
						"slot": "2",
						"type": "t_string_storage"
					},
					{
						"astId": 54,
						"contract": "Contract/SimpleStorage.sol:SimpleStorage",
						"label": "person",
						"offset": 0,
						"slot": "3",
						"type": "t_array(t_struct(People)50_storage)dyn_storage"
					},
					{
						"astId": 96,
						"contract": "Contract/SimpleStorage.sol:SimpleStorage",
						"label": "favNumberToName",
						"offset": 0,
						"slot": "4",
						"type": "t_mapping(t_uint256,t_string_storage)"
					},
					{
						"astId": 100,
						"contract": "Contract/SimpleStorage.sol:SimpleStorage",
						"label": "personal",
						"offset": 0,
						"slot": "5",
						"type": "t_array(t_struct(PeopleFavNumber)92_storage)dyn_storage"
					}
				],
				"types": {
					"t_array(t_struct(People)50_storage)dyn_storage": {
						"base": "t_struct(People)50_storage",
						"encoding": "dynamic_array",
						"label": "struct SimpleStorage.People[]",
						"numberOfBytes": "32"
					},
					"t_array(t_struct(PeopleFavNumber)92_storage)dyn_storage": {
						"base": "t_struct(PeopleFavNumber)92_storage",
						"encoding": "dynamic_array",
						"label": "struct SimpleStorage.PeopleFavNumber[]",
						"numberOfBytes": "32"
					},
					"t_mapping(t_string_memory_ptr,t_uint256)": {
						"encoding": "mapping",
						"key": "t_string_memory_ptr",
						"label": "mapping(string => uint256)",
						"numberOfBytes": "32",
						"value": "t_uint256"
					},
					"t_mapping(t_uint256,t_string_storage)": {
						"encoding": "mapping",
						"key": "t_uint256",
						"label": "mapping(uint256 => string)",
						"numberOfBytes": "32",
						"value": "t_string_storage"
					},
					"t_string_memory_ptr": {
						"encoding": "bytes",
						"label": "string",
						"numberOfBytes": "32"
					},
					"t_string_storage": {
						"encoding": "bytes",
						"label": "string",
						"numberOfBytes": "32"
					},
					"t_struct(People)50_storage": {
						"encoding": "inplace",
						"label": "struct SimpleStorage.People",
						"members": [
							{
								"astId": 47,
								"contract": "Contract/SimpleStorage.sol:SimpleStorage",
								"label": "name",
								"offset": 0,
								"slot": "0",
								"type": "t_string_storage"
							},
							{
								"astId": 49,
								"contract": "Contract/SimpleStorage.sol:SimpleStorage",
								"label": "age",
								"offset": 0,
								"slot": "1",
								"type": "t_uint256"
							}
						],
						"numberOfBytes": "64"
					},
					"t_struct(PeopleFavNumber)92_storage": {
						"encoding": "inplace",
						"label": "struct SimpleStorage.PeopleFavNumber",
						"members": [
							{
								"astId": 89,
								"contract": "Contract/SimpleStorage.sol:SimpleStorage",
								"label": "peopleName",
								"offset": 0,
								"slot": "0",
								"type": "t_string_storage"
							},
							{
								"astId": 91,
								"contract": "Contract/SimpleStorage.sol:SimpleStorage",
								"label": "favNumber",
								"offset": 0,
								"slot": "1",
								"type": "t_uint256"
							}
						],
						"numberOfBytes": "64"
					},
					"t_uint256": {
						"encoding": "inplace",
						"label": "uint256",
						"numberOfBytes": "32"
					}
				}
			},
			"userdoc": {
				"kind": "user",
				"methods": {},
				"version": 1
			}
		}
	}
}